:100000000C942A000C9483000C9447000C94470035
:100010000C9447000C9447000C9447000C94470044
:100020000C9447000C9447000C9447000C94470034
:100030000C9447000C9447000C9447000C94470024
:100040000C9447000C9447000C9447000C94470014
:100050000C94470011241FBECFE5D8E0DEBFCDBF12
:1000600017E0A0E6B0E0E2E0FCE202C005900D92ED
:10007000AC3BB107D9F727E0ACEBB7E001C01D926C
:10008000AC3BB207E1F70E94EB0A0C94FF150C940D
:1000900000008B9A8C9A94980895979A98B384E06C
:1000A000892788BB08950E9474008B32910524F43F
:1000B00093989798C29808959C0129533109293142
:1000C000310520F4939A9798C29808958335910545
:1000D0001CF093980E944D000895379A3E9A97B16C
:1000E000892B87B9329A0895369A349BFECF85E3DF
:1000F0008A95F1F7000024B185B190E0982F882708
:10010000820F911D08951F920F920FB60F92112426
:100110005F926F927F928F929F92AF92BF92CF9297
:10012000DF92EF92FF920F931F932F933F934F9382
:100130005F936F937F938F939F93AF93BF93EF934F
:10014000FF93CF93DF93CDB7DEB76197DEBFCDBF0F
:1001500019820E947D07AE014F5F5F4F63E08EEA18
:100160000E948B048FE39CE90197F1F700C0000027
:100170006894992491F85E0196E0A90EB11C7A2C3E
:100180008B2C01C0982E66246394690C8DEA90E054
:100190000E94A3068EE00E9415067E01E2E0EE0EAC
:1001A000F11C0E94C805182F0E94530080ED810F9A
:1001B0008A30B8F7F70111937F01EA15FB0539F58D
:1001C0008CE00E941506812F0E947A06FFEF25EA37
:1001D0008EE0F15020408040E1F700C000009FEF2A
:1001E000E9E6F8E19150E040F040E1F700C000009E
:1001F0000E94CF0680E790E00E94A3068EE00E9456
:1002000015067E0126E0E20EF11C00E00DC0812FF4
:100210000E947A068FEF95EAEEE081509040E04030
:10022000E1F700C00000BDCF0E94C805182F0E9452
:10023000530080ED810F8A30B8F7F70111937F01E9
:10024000033001F58CE00E941506812F0E947A068A
:10025000FFEF27E883E1F15020408040E1F700C044
:1002600000006DE080E00E94C2068AE20E947A06E9
:100270009FEFE1EEF4E09150E040F040E1F700C084
:10028000000021C0812F0E947A062FEF87E893E1BA
:10029000215080409040E1F700C000006AE0600F0C
:1002A00080E00E94C2068AE20E947A06EFEFF1EE39
:1002B00024E0E150F0402040E1F700C000000F5F73
:1002C000043009F0B1CF8FEF99E6E8E1815090401A
:1002D000E040E1F700C000000E94CF068981811153
:1002E0004BC057C0A601612F8AEA0E948B048FE39E
:1002F0009CE90197F1F700C00000A701612F8CEA8B
:100300000E948B04EFE3FCE93197F1F700C0000095
:100310001F5FFFEFCF1ADF0A2FEFE21AF20A101366
:10032000E1CF44E0BE01665F7F4FCE0102960E949E
:10033000AC048133D9F444E0BE01625F7F4F872D66
:10034000982D0E94AC04813389F48BE790E00E94E1
:10035000A3068FEF99E6E8E181509040E040E1F795
:1003600000C000000E94CF06962C32C05394102F7C
:100370008981581618F00DC010E0512C6E01FAE07A
:10038000CF0ED11C7E012EE0E20EF11C04E0010F25
:10039000A9CF8AE890E00E94A30680EC0E9415068F
:1003A00088E990E00E94A30680E3890D0E947A0606
:1003B0008FEF99E6E8E181509040E040E1F700C01E
:1003C00000000E94CF068FEF890D833008F4DACE4B
:1003D000911002C00E94AC0A0E942E09FFEF20E794
:1003E00082E0F15020408040E1F700C000006196BB
:1003F0000FB6F894DEBF0FBECDBFDF91CF91FF9156
:10040000EF91BF91AF919F918F917F916F915F918C
:100410004F913F912F911F910F91FF90EF90DF909F
:10042000CF90BF90AF909F908F907F906F905F9094
:100430000F900FBE0F901F9018950E943E060E94CD
:10044000B70587E690E00E943C0C0E94F80A0E94E3
:10045000790A0E94CB0A0E94770A83E090E00E940A
:100460006D000E94F60A0E9449000E94AB050E949E
:100470006B0408952F923F924F925F926F927F92FA
:100480008F929F92AF92BF92CF92DF92EF92FF92A4
:100490000F931F93CF93DF93CDB7DEB763970FB65C
:1004A000F894DEBF0FBECDBF19821A820E94840C61
:1004B000813309F014C1AE014F5F5F4F61E08EEAF6
:1004C0000E948B048FE39CE90197F1F700C00000C4
:1004D0006894772471F84E0197E0890E911C5E01B3
:1004E000EBE0AE0EB11C01C0782E66246394670C5D
:1004F00087EA90E00E945A0C7E01F3E0EF0EF11CB7
:100500000E94520C182F0E944E0C80ED810F8A30F1
:10051000B8F7F70111937F018E169F0689F78DE0DA
:100520000E944E0C89EB90E00E945A0C7E01F7E08D
:10053000EF0EF11C0E94520C182F0E944E0C80ED01
:10054000810F8A30B8F7F70111937F01EA15FB0597
:1005500089F78DE00E944E0CCE010F967C0185013B
:10056000D12CA8016D2D80EA0E948B04EFE3FCE9F9
:100570003197F1F700C0000068E06D0DA70180EA37
:100580000E948B048FE39CE90197F1F700C0000003
:10059000D3940F5F1F4F9FEFE91AF90AE4E0DE12D0
:1005A000E0CF44E0B501CE0103960E94AC04813354
:1005B00021F08981811166C06EC044E0BE01615F97
:1005C0007F4FC4010E94AC04813399F78DE00E94F3
:1005D0004E0C8DE00E944E0C8BEC90E00E945A0C69
:1005E0008DE00E944E0C8DE00E944E0C59C1A70177
:1005F000612F82EA0E948B048FE39CE90197F1F757
:1006000000C00000A601612F84EA0E948B04EFE382
:10061000FCE93197F1F700C000001F5FFFEFEF1A10
:10062000FF0A8FEFC81AD80A1013E1CF44E0B501D2
:10063000CE0103960E94AC048133F1F444E0BE0184
:10064000615F7F4FC4010E94AC048133A9F48BE742
:1006500090E00E945A0C8DE00E944E0C8DE00E94AA
:100660004E0C88ED90E00E945A0C8DE00E944E0CDA
:100670008DE00E944E0C14C15394102F898158169E
:1006800018F009C010E0512C04E0010FFE013F9664
:100690006F017501ACCF8AE890E00E945A0C8DE0A2
:1006A0000E944E0C86EE90E00E945A0C80E3870D6B
:1006B0000E944E0C8DE00E944E0C8DE00E944E0C6C
:1006C0008DE00E944E0C8FEF870D833008F40CCF25
:1006D000711002C00E94AC0A0E940E0EE3C0AE016F
:1006E0004E5F5F4F62E08EEA0E948B048FE39CE9CD
:1006F0000197F1F700C000006894772471F85E015B
:1007000097E0A90EB11C4E01EBE08E0E911CC82C97
:10071000D92C6A2C5B2C01C0782EF1E0F70DFB8BF5
:1007200087EA90E00E945A0C7E0183E0E80EF11CFB
:100730000E94520C182F0E944E0C80ED810F8A30BF
:10074000B8F7F70111937F01AE16BF0689F78DE068
:100750000E944E0C89EB90E00E945A0C7E01F7E05B
:10076000EF0EF11C0E94520C182F0E944E0C80EDCF
:10077000810F8A30B8F7F70111937F01E815F90569
:1007800089F78DE00E944E0C8DE00E944E0C8DE0AA
:100790000E944E0C8A81811151C05EC0A701642D58
:1007A00086EA0E948B048FE39CE90197F1F700C071
:1007B0000000A801642D88EA0E948B04EFE3FCE9A5
:1007C0003197F1F700C000004394FFEFEF1AFF0AE2
:1007D0000F5F1F4F3410E2CF44E06C2D7D2DCE0112
:1007E00003960E94AC04813319F544E0BE01615FB9
:1007F0007F4F862D952D0E94AC048133C9F48BE781
:1008000090E00E945A0C8DE00E944E0C8DE00E94F8
:100810004E0C8FE091E00E945A0C8DE00E944E0C2D
:100820008DE00E944E0C8DE00E944E0C7B8831C002
:100830002394432C8A81281618F00EC0412C212CB9
:100840007E018BE0E80EF11C8E01015F1F4F689462
:10085000332432F8340CA2CF8AE890E00E945A0C7C
:100860008DE00E944E0C86EE90E00E945A0C80E3D0
:10087000870D0E944E0C8DE00E944E0C8DE00E9470
:100880004E0C8DE00E944E0C8FEF870D833008F4E4
:1008900043CF711002C00E94AC0A0E94141502C01E
:1008A000762C16CF63960FB6F894DEBF0FBECDBF81
:1008B000DF91CF911F910F91FF90EF90DF90CF903C
:1008C000BF90AF909F908F907F906F905F904F9070
:1008D0003F902F9008950E944A050895CF93DF938B
:1008E000D62FC42F0E944E058D2F0E9488058FE3BE
:1008F0009CE90197F1F700C000008C2F0E94880549
:100900008FE39CE90197F1F700C000000E94A50564
:10091000DF91CF9108950F931F93CF93DF93C82F4B
:10092000D62F8A010E944E058D2F0E94880581E0F6
:100930008C0F0E946B050E949A05F80180838FE35B
:100940009CE90197F1F700C000000E94A505DF9126
:10095000CF911F910F91089550E041155105B1F0CD
:10096000FC013081FB012081321312C0FC01319661
:10097000DB011196480F591F04C021919D91291345
:1009800009C0E417F507C9F781E3089581E30895E5
:1009900080E3089580E30895CF93C0E041E36C2F96
:1009A00080EA0E946E048FE39CE90197F1F700C092
:1009B000000068E06C0F41E380EA0E946E048FE360
:1009C0009CE90197F1F700C00000CF5FC43031F718
:1009D000CF910895CF93DF9300D01F92CDB7DEB7AC
:1009E00019821A821B82AE014F5F5F4F61E08EEA6F
:1009F0000E948B048FE39CE90197F1F700C000008F
:100A0000AE014E5F5F4F62E08EEA0E948B048FE37F
:100A10009CE90197F1F700C00000AE014D5F5F4F08
:100A200063E08EEA0E948B048FE39CE90197F1F763
:100A300000C0000089818F3F59F440E061E08EEAF8
:100A40000E946E048FE39CE90197F1F700C000005B
:100A50008A818F3F59F440E062E08EEA0E946E0482
:100A60008FE39CE90197F1F700C000008B818F3F75
:100A700059F440E063E08EEA0E946E048FE39CE943
:100A80000197F1F700C000000F900F900F90DF91D9
:100A9000CF91089511B88FEF80B9089594EA96BF69
:100AA00006B607FEFDCF91B1987F983071F483B9F7
:100AB00084E886BF06B607FEFDCF81B1887F883106
:100AC00031F0803231F083E0089580E0089581E0D4
:100AD000089582E0089594EA96BF06B607FEFDCF1A
:100AE00091B1987F903171F483B984E886BF06B6DE
:100AF00007FEFDCF81B1887F803431F0883431F03A
:100B000083E0089580E0089581E0089582E00895EB
:100B100083B984E886BF06B607FEFDCF81B1887F22
:100B2000883221F0803321F082E0089580E008953A
:100B300081E0089586B7846086BF86B7806886BFE7
:100B400006B607FEFDCF83B1089584E986BF06B6D9
:100B500004FCFDCF08958A988BB780648BBF85B75E
:100B60008D7F85BF85B78E7F85BF78940895A498C3
:100B7000A598A698A798AC9AAD9AAE9AAF9ABC9A47
:100B8000BD9ABE9ABF9AC49AC59AC69AC79A089542
:100B90000F931F93CF93DF93C4E0D0E080E0A1E0F8
:100BA000B0E098B38D010C2E02C0000F111F0A9403
:100BB000E2F7202F2095922398BBFE01E45AFF4FC5
:100BC00064E070E023B3962FAD01062E02C0440FFF
:100BD000551F0A94E2F730E024233523062E02C085
:100BE000359527950A94E2F7232B69F4808123B386
:100BF00030E024233523092E02C0359527950A9429
:100C0000E2F7232BA1F36F5F7F4F349668307105B5
:100C1000C9F698B3092B08BB2196C830D10509F64F
:100C2000DF91CF911F910F9108959BB39F70282F53
:100C3000207F922B9BBBD898D998DA9A35E03A95C9
:100C4000F1F70000DA98EFE1F3E03197F1F700C037
:100C500000002BB32F70F0E18F9FC0011124822B75
:100C60008BBBDA9A35E03A95F1F70000DA988FE31A
:100C70009FE10197F1F700C000000895D09AD19A42
:100C8000D29AD898D998DA98D49AD59AD69AD79AE7
:100C9000DC98DD98DE98DF9882E00E9415068FE9E7
:100CA0009FE00197F1F700C0000088E20E9415065E
:100CB0008FE99FE00197F1F700C0000081E00E94FA
:100CC00015068FE99FE00197F1F700C000008CE066
:100CD0000E9415068FE99FE00197F1F700C0000020
:100CE00086E00E9415068FE99FE00197F1F700C0AA
:100CF000000008959BB39F70282F207F922B9BBBF1
:100D0000D89AD998DA9A35E03A95F1F70000DA984E
:100D1000EFE1F3E03197F1F700C000002BB32F7043
:100D2000F0E18F9FC0011124822B8BBBDA9A35E052
:100D30003A95F1F70000DA988FE39FE10197F1F718
:100D400000C0000008950F931F93CF93FC01808192
:100D50008823A1F08F01C0E00E947A062FEF80E780
:100D600092E0215080409040E1F700C00000CF5F4A
:100D7000F801EC0FF11D80818111EECFCF911F9111
:100D80000F910895823050F4603140F490E4899FCF
:100D9000600D1124862F80680E941506089581E059
:100DA0000E9415060895833309F447C028F481335F
:100DB00051F0823329F195C0843309F45BC0853347
:100DC00009F474C08EC0603379F0613309F089C0D2
:100DD0008CE191E00E94A30680EC0E94150687E258
:100DE00091E00E94A3067DC08CE191E00E94A306E1
:100DF00080EC0E94150684E391E00E94A30671C076
:100E0000603379F0613309F06CC082E491E00E94B4
:100E1000A30680EC0E94150687E291E00E94A306DB
:100E200060C082E491E00E94A30680EC0E94150657
:100E300084E391E00E94A30654C0603379F06133EB
:100E400009F04FC08DE491E00E94A30680EC0E945F
:100E5000150687E291E00E94A30643C08DE491E06D
:100E60000E94A30680EC0E94150684E391E00E9494
:100E7000A30637C0603371F0613399F588E591E0DE
:100E80000E94A30680EC0E94150687E291E00E9472
:100E9000A30627C088E591E00E94A30680EC0E948B
:100EA000150684E391E00E94A3061BC0603371F035
:100EB0006133B9F483E691E00E94A30680EC0E94BE
:100EC000150687E291E00E94A3060BC083E691E03D
:100ED0000E94A30680EC0E94150684E391E00E9424
:100EE000A3062FEF83ED90E3215080409040E1F77F
:100EF00000C000000E94CF0608958EE691E00E9497
:100F0000A30680EC0E9415068FEC92E00E94A306D7
:100F10002FEF83ED90E3215080409040E1F700C037
:100F200000000E94CF0608951F93CF93DF938FE7B1
:100F300091E00E94A3062FEF83ED90E321508040C3
:100F40009040E1F700C000000E94CF068EE891E0DB
:100F50000E94A30680EC0E94150688E991E00E9499
:100F6000A3062FEF89E698E1215080409040E1F7F9
:100F700000C000000E94CF0682EA91E00E94A30612
:100F800080EC0E9415068CEA91E00E94A3062FEFE8
:100F900089E698E1215080409040E1F700C00000D0
:100FA0000E94CF0686EB91E00E94A30680EC0E948F
:100FB000150680EC91E00E94A3062FEF89E698E1E8
:100FC000215080409040E1F700C000000E94CF0611
:100FD0008DEC91E00E94A3068FE00E9415060E940E
:100FE000C805C82F80ED8C0F8A30C8F78C2F0E945F
:100FF0007A062FEF89E698E1215080409040E1F792
:1010000000C000000E94CF068FEC8C0F863008F4E1
:10101000DAC08CED91E00E94A30680EC0E941506D8
:101020008FE993E00E94A3062FEF83ED90E3215018
:1010300080409040E1F700C000000E94CF060E946F
:10104000C805C82F80ED8C0F8A30C8F78C2F0E94FE
:101050007A062FEF89E698E1215080409040E1F731
:1010600000C000000E94CF068FEC8C0F863088F6FF
:10107000AAC00E94C805D82F10ED180F1A30C8F763
:101080000E947A062FEF83ED90E32150804090403C
:10109000E1F700C000000E94CF06123080F18CED15
:1010A00091E00E94A30680EC0E94150663E081E0B7
:1010B0000E94C20682ED93E00E94A3062FEF83ED0B
:1010C00090E3215080409040E1F700C000000E9472
:1010D000CF060E94C805D82F10ED180F1A30C8F798
:1010E0000E947A062FEF89E698E1215080409040D7
:1010F000E1F700C000000E94CF06123080F6C63330
:1011000009F058C0D13359F561E381E30E94800AA8
:1011100062E381E30E94800A63E381E30E94800A24
:1011200064E381E30E94800A65E381E30E94800A10
:101130008AEE91E00E94A30680EC0E94150686EEDE
:1011400093E00E94A3062FEF83ED90E321508040AF
:101150009040E1F700C000000E94CF064EC061E35E
:1011600080E30E94800A62E380E30E94800A63E3D6
:1011700080E30E94800A64E380E30E94800A65E3C2
:1011800080E30E94800A8AEE91E00E94A30680EC30
:101190000E94150688EF91E00E94A3062FEF83EDD1
:1011A00090E3215080409040E1F700C000000E9491
:1011B000CF0623C06C2F8D2F0E94800A6D2F8C2F9D
:1011C0000E94D3061AC08CE00E94150683E092E0CC
:1011D0000E94A30680EC0E9415068FE092E00E9418
:1011E000A3062FEF87EA91E6215080409040E1F777
:1011F00000C000000E94CF063CCFDF91CF911F912D
:1012000008958CE192E00E94A30680EC0E941506EE
:101210008BE292E00E94A3062FEF89E698E121502D
:1012200080409040E1F700C000000E94CF068AE3B2
:1012300092E00E94A30680EC0E9415068BE492E0E7
:101240000E94A3062FEF89E698E12150804090404C
:10125000E1F700C000000E94CF060895CF93DF930E
:101260000E9401098DEC91E00E94A3068FE00E948C
:1012700015060E94C805C82F0E94530080ED8C0FF0
:101280008A30B8F78C2F0E947A062FEF89E698E112
:10129000215080409040E1F700C000000E94CF063E
:1012A0008FEC8C0F8430E8F18EE00E9415068CEDF7
:1012B00091E00E94A30680EC0E9415068FEA97E059
:1012C0000E94A3062FEF83ED90E3215080409040D1
:1012D000E1F700C000000E94CF060E9401098DECDA
:1012E00091E00E94A3068FE00E9415060E94C805A7
:1012F000C82F0E94530080ED8C0F8A30B8F78C2FD6
:101300000E947A062FEF89E698E1215080409040B4
:10131000E1F700C000000E94CF068FEC8C0F8430F4
:1013200018F68CE00E941506C13319F40E94940748
:1013300097CFC23309F0BAC084E592E00E94A306B9
:1013400080EC0E94150683E692E00E94A3062FEF30
:1013500089E698E1215080409040E1F700C000000C
:101360000E94CF0683E792E00E94A30680EC0E94D1
:10137000150680E892E00E94A3062FEF89E698E127
:10138000215080409040E1F700C000000E94CF064D
:1013900089E892E00E94A30680EC0E94150682E98B
:1013A00092E00E94A3062FEF89E698E12150804049
:1013B0009040E1F700C000000E94CF068BE992E068
:1013C0000E94A30680EC0E9415068AE595E00E9423
:1013D000A3062FEF89E698E1215080409040E1F785
:1013E00000C000000E94CF068DEC91E00E94A30691
:1013F0008FE00E9415060E94C805C82F0E94530066
:10140000D0EDDC0FDA30B8F78C2F0E947A062FEF80
:1014100089E698E1215080409040E1F700C000004B
:101420000E94CF06D530D8F18EE00E9415068CEDD3
:1014300091E00E94A30680EC0E9415068DE795E0DE
:101440000E94A3062FEF83ED90E32150804090404F
:10145000E1F700C000000E94CF060E9401098DEC58
:1014600091E00E94A3068FE00E9415060E94C80525
:10147000C82F0E945300D0EDDC0FDA30B8F78C2F64
:101480000E947A062FEF89E698E121508040904033
:10149000E1F700C000000E94CF06D53028F68CE0AE
:1014A0000E9415068C2F0E94D30ADACEC333C9F4EA
:1014B0000E940F0B85EA92E00E94A30680EC0E9436
:1014C000150683EB92E00E94A3062FEF83ED90E3D5
:1014D000215080409040E1F700C000000E94CF06FC
:1014E000BFCEC43309F0BCCEDF91CF9108958F9A5F
:1014F0000895B89AB99AA29AA39A8E9ABA9A089518
:101500008133A1F4613311F4C09A0895623311F468
:10151000C19A0895633311F4AA9A0895643311F4BB
:10152000AB9A08956533B9F4969A0895803399F487
:10153000613311F4C0980895623311F4C19808958D
:10154000633311F4AA980895643311F4AB980895A5
:10155000653309F49698089551E042E034E028E0BC
:1015600090E4979A88B3852788BB88B3842788BB83
:1015700085B3832785BB85B3822785BB82B3892743
:1015800082BB6FEF79E688E1615070408040E1F7FF
:1015900000C00000E6CFBB9A22E342E361E380E0B3
:1015A0000E94140B0895803311F41CBE08958133FA
:1015B00019F48FE38CBF0895823319F48FE78CBF41
:1015C0000895833319F48FEB8CBF0895843311F49D
:1015D0008FEF8CBF08950E941D020E94CC040E94D0
:1015E000EA040E94700C0E943A02FDCFD39808953D
:1015F0008D9A22E342E362E381E00E94140B8FE3C1
:101600009CE997BD86BD1DBC1CBC87EB9BE09BBDC8
:101610008ABD089582E894E19BBD8ABD089587EB59
:101620009BE09BBD8ABD0895811186C0203351F493
:1016300083B78E7F83BF83B78D7F83BF83B78B7F55
:1016400083BF3BC0213351F483B7816083BF83B72D
:101650008D7F83BF83B78B7F83BF2FC0223351F42D
:1016600083B78E7F83BF83B7826083BF83B78B7F4F
:1016700083BF23C0233351F483B7816083BF83B713
:10168000826083BF83B78B7F83BF17C0243351F43D
:1016900083B78E7F83BF83B78D7F83BF83B784601B
:1016A00083BF0BC0253349F483B7816083BF83B701
:1016B0008D7F83BF83B7846083BF603339F483B782
:1016C000877F83BF83B78F7B83BF11C0623339F4B9
:1016D00083B7886083BF83B7806483BF08C06133EA
:1016E00031F483B7877F83BF83B7806483BF403380
:1016F00039F483B78F7E83BF83B78F7D83BF08950F
:10170000413339F483B78F7D83BF83B7806183BF53
:101710000895423339F483B78F7E83BF83B78062E5
:1017200083BF0895433309F0A0C083B7806183BFAE
:1017300083B7806283BF0895813009F096C020335B
:1017400051F48EB58E7F8EBD8EB58D7F8EBD8EB5DC
:101750008B7F8EBD3BC0213351F48EB581608EBD31
:101760008EB58D7F8EBD8EB58B7F8EBD2FC0223303
:1017700051F48EB58E7F8EBD8EB582608EBD8EB5D6
:101780008B7F8EBD23C0233351F48EB581608EBD17
:101790008EB582608EBD8EB58B7F8EBD17C0243313
:1017A00051F48EB58E7F8EBD8EB58D7F8EBD8EB57C
:1017B00084608EBD0BC0253349F48EB581608EBD2B
:1017C0008EB58D7F8EBD8EB584608EBD603369F41D
:1017D0008FB58E7F8FBD8FB58D7F8FBD8EB5877F87
:1017E0008EBD8EB58F7E8EBD1DC0623369F48FB500
:1017F0008E7F8FBD8FB582608FBD8EB588608EBDA8
:101800008EB580618EBD0EC0613361F48FB58E7F61
:101810008FBD8FB582608FBD8EB5877F8EBD8EB533
:1018200080618EBD403339F48FB58F7B8FBD8FB50E
:101830008F778FBD0895413339F48FB580648FBDA4
:101840008FB58F778FBD0895423339F48FB58F7B75
:101850008FBD8FB580688FBD0895433331F48FB548
:1018600080648FBD8FB580688FBD089580B5886016
:1018700080BD08955698089590BD89B90E943A0C8C
:10188000539A549A80B5806880BD0E94360C80B50A
:10189000826080BD80B5846080BD08955D9BFECF71
:1018A0008CB908955F9904C00E9453005F9BFCCFE0
:1018B0008CB108950F931F93CF93FC0180818823EF
:1018C00059F08F01C0E00E944E0CCF5FF801EC0F81
:1018D000F11D80818111F7CFCF911F910F91089554
:1018E0008EEB92E00E945A0C8DE00E944E0C8DE02F
:1018F0000E944E0C2FEF85EA9EE0215080409040E0
:10190000E1F700C000000895CF938BED92E00E94B4
:101910005A0C8DE00E944E0C81E093E00E945A0C1C
:101920008DE00E944E0C80E193E00E945A0C8DE005
:101930000E944E0C8DE00E944E0C2FEF85EA9EE037
:10194000215080409040E1F700C000008DEC91E014
:101950000E945A0C0E94520CC82F0E944E0C80ED1F
:101960008C0F8A30B8F78DE00E944E0C8DE00E94FB
:101970004E0C8FEC8C0F823008F18EE193E00E94C8
:101980005A0C8DE00E944E0C8DE00E944E0C88E3B4
:1019900093E00E945A0C0E94520CC82F0E944E0CD9
:1019A00080ED8C0F8A30B8F78DE00E944E0C8DE0F0
:1019B0000E944E0C8FEC8C0F8230F8F68C2FCF915A
:1019C0000895CF93DF9387E493E00E945A0C8DE053
:1019D0000E944E0C82E593E00E945A0C8DE00E941A
:1019E0004E0C8DE593E00E945A0C8DE00E944E0C47
:1019F00088E693E00E945A0C8DE00E944E0C83E72B
:101A000093E00E945A0C8DE00E944E0C8EE793E00A
:101A10000E945A0C8DE00E944E0C8DE00E944E0CEC
:101A200088E393E00E945A0C0E94520CC82F0E9437
:101A30004E0C8DE00E944E0C8DE00E944E0C80ED0D
:101A40008C0F8A3088F71DC08CE893E00E945A0CF6
:101A50008DE00E944E0C8DE00E944E0C88E393E0D6
:101A60000E945A0C0E94520CC82F0E944E0C8DE00E
:101A70000E944E0C8DE00E944E0C80ED8C0F8A303F
:101A800088F78FEC8C0F8630F8F68BEA93E00E9493
:101A90005A0C8DE00E944E0C87EB93E00E945A0C8A
:101AA0008DE00E944E0C8DE00E944E0C8DEC91E07A
:101AB0000E945A0C0E94520CD82F0E944E0C8DE0AE
:101AC0000E944E0C8DE00E944E0C80ED8D0F8A30EE
:101AD00088F71DC084EC93E00E945A0C8DE00E94B0
:101AE0004E0C8DE00E944E0C88E393E00E945A0C4D
:101AF0000E94520CD82F0E944E0C8DE00E944E0C7A
:101B00008DE00E944E0C80ED8D0F8A3088F780EDBD
:101B10008D0F8230F8F6C63309F06CC0D133A9F5C9
:101B200061E381E30E94800A62E381E30E94800A0C
:101B300063E381E30E94800A64E381E30E94800AF8
:101B400065E381E30E94800A89ED93E00E945A0CCC
:101B50008DE00E944E0C8DE00E944E0C8AEE91E0CA
:101B60000E94A30680EC0E94150686EE93E00E9478
:101B7000A3062FEF83ED90E3215080409040E1F7E2
:101B800000C000000E94CF063DC061E380E30E94D8
:101B9000800A62E380E30E94800A63E380E30E949C
:101BA000800A64E380E30E94800A65E380E30E9488
:101BB000800A80EF93E00E945A0C8DE00E944E0C48
:101BC0008DE00E944E0C8AEE91E00E94A30680EC0C
:101BD0000E9415068DEF93E00E94A3062FEF83ED80
:101BE00090E3215080409040E1F700C000000E9447
:101BF000CF0608C06C2F8D2F0E94800A6D2F8C2F6E
:101C00000E94D3068DE00E944E0C8DE00E944E0C87
:101C10008DE00E944E0CDF91CF9108952F923F925C
:101C20004F925F926F927F928F929F92AF92BF92EC
:101C3000CF92DF92EF92FF920F931F93CF93DF9398
:101C4000CDB7DEB7A6970FB6F894DEBF0FBECDBFF7
:101C5000198E1A8E1B8E912C10E0CE0105969D8F49
:101C60008C8F2E0199E0490E511CFE0131967F01A7
:101C7000242C5E8EEF8F3F2CFC8DFDA32D8D2EA38B
:101C800088E094E00E945A0C8DE00E944E0C83E3A1
:101C900094E00E945A0C8DE00E944E0C83E494E084
:101CA0000E945A0C8DE00E944E0C84E594E00E9444
:101CB0005A0C8DE00E944E0C86E694E00E945A0C6D
:101CC0008DE00E944E0C81E894E00E945A0C8DE059
:101CD0000E944E0C8BE994E00E945A0C8DE00E9409
:101CE0004E0C8CEB94E00E945A0C8DE00E944E0C3E
:101CF0008DE00E944E0C8DEC91E00E945A0C0E94E7
:101D0000520C90ED980F9A30D0F7082F0E944E0C8D
:101D10008DE00E944E0C8DE00E944E0C8FEC800FE7
:101D2000883008F187EC94E00E945A0C8DE00E9404
:101D30004E0C8DE00E944E0C88E393E00E945A0CFA
:101D40000E94520C082F0E944E0C80ED800F8A30AA
:101D5000B8F78DE00E944E0C8DE00E944E0C8FEC87
:101D6000800F8830F8F6013319F40E94E10C88CF17
:101D7000023309F06CC08DE00E944E0C8DE00E9491
:101D80004E0C86EE94E00E945A0C8DE00E944E0CA0
:101D90008DE00E944E0C84E295E00E945A0C8DE08A
:101DA0000E944E0C89E395E00E945A0C8DE00E943F
:101DB0004E0C81E495E00E945A0C8DE00E944E0C7E
:101DC00089E495E00E945A0C8DE00E944E0C81E55A
:101DD00095E00E945A0C8DE00E944E0C88E393E03F
:101DE0000E945A0C0E94520C082F0E944E0C8DE04B
:101DF0000E944E0C8DE00E944E0C80ED800F8A30C8
:101E000088F71DC08AE695E00E945A0C8DE00E947A
:101E10004E0C8DE00E944E0C88E393E00E945A0C19
:101E20000E94520C082F0E944E0C8DE00E944E0C16
:101E30008DE00E944E0C80ED800F8A3088F780ED97
:101E4000800F8530F8F6802F0E94D30A19CF033314
:101E500059F50E940A0B89E895E00E945A0C8DE022
:101E60000E944E0C8BE895E00E945A0C89E895E0A0
:101E70000E945A0C8DE00E944E0C85EA92E00E946E
:101E8000A30680EC0E9415068EE995E00E94A30649
:101E90008FEF99E6E8E181509040E040E1F700C023
:101EA00000000E94CF06ECCE043359F50E940F0BC0
:101EB00089E895E00E945A0C8DE00E944E0C8AEA57
:101EC00095E00E945A0C89E895E00E945A0C8DE03A
:101ED0000E944E0C85EA92E00E94A30680EC0E94CC
:101EE000150683EB92E00E94A306FFEF29E688E146
:101EF000F15020408040E1F700C000000E94CF0672
:101F0000BFCE053309F0CFC0AE01455E5F4F61E043
:101F10008EEA0E948B04EFE3FCE93197F1F700C0F1
:101F200000008B8D803408F0A3C08DE00E944E0C21
:101F30008DE00E944E0C87EA90E00E945A0C14300B
:101F400088F40E94520C082F80ED800F8A30C8F769
:101F5000802F0E944E0CF701E10FF11D00831F5FDF
:101F6000143079F78DE00E944E0C89EB90E00E94CE
:101F70005A0C3E01F5E06F0E711C63010E94520C79
:101F8000182F80ED810F8A30C8F7812F0E944E0CE8
:101F9000F60111936F01E415F50581F78DE00E94BC
:101FA0004E0CAE01475E5F4F61E08EEA0E948B04EB
:101FB0008FE39CE90197F1F700C00000FE01319624
:101FC0006F01B12C1B2DF60141916F01698D660FD8
:101FD000660F610F82EA0E946E048FE39CE901970D
:101FE000F1F700C00000F30141913F01698D660FD8
:101FF000660F610F84EA0E946E048FE39CE90197EB
:10200000F1F700C000001F5F1430E9F6498D4F5F03
:10201000498F61E08EEA0E946E04EFE3FCE931979C
:10202000F1F700C000008DEB95E00E945A0C8DE0A6
:102030000E944E0C8DE00E944E0C61E080E00E94F8
:10204000C2068DED95E00E94A30662E081E00E9449
:10205000C20680ED95E00E94A306FFEF29E688E125
:10206000F15020408040E1F700C0000010E008CEB1
:102070008CEE95E00E945A0C8DE00E944E0C8CE193
:1020800096E00E945A0C8DE00E944E0C8DE00E945A
:102090004E0C9FEFE9E6F8E19150E040F040E1F7A7
:1020A00000C00000EDCD063309F0D6C18DE00E94DE
:1020B0004E0C8DE00E944E0C86E396E00E945A0C76
:1020C0008DE00E944E0C8CE496E00E945A0C8DE04C
:1020D0000E944E0C8DE00E944E0C88E393E00E941B
:1020E0005A0C0E94520C082F0E944E0C80ED800F5B
:1020F0008A30B8F78FEC800F8230E0F08EE193E009
:102100000E945A0C8DE00E944E0C8DE00E944E0CF5
:1021100088E393E00E945A0C0E94520C082F80ED35
:10212000800F8A30C8F7802F0E944E0C8FEC800FF2
:10213000823020F7013309F0D0C0AE01455E5F4F19
:1021400062E08EEA0E948B048FE39CE90197F1F72D
:1021500000C000008B8D803408F0A4C08DE00E9488
:102160004E0C8DE00E944E0C87EA90E00E945A0CC3
:10217000143088F40E94520C082F80ED800F8A30B2
:10218000C8F7802F0E944E0CF701E10FF11D00836C
:102190001F5F143079F78DE00E944E0C89EB90E0C0
:1021A0000E945A0C8E010B5F1F4F680158010E945C
:1021B000520C182F80ED810F8A30C8F7812F0E94B2
:1021C0004E0CF60111936F014E165F0681F78501E3
:1021D0008DE00E944E0CAE01465E5F4F62E08EEADB
:1021E0000E948B048FE39CE90197F1F700C0000087
:1021F000FE0131966F01B12CF60141916F016A8D9C
:10220000660F660F6B0D86EA0E946E048FE39CE9F1
:102210000197F1F700C00000F80141918F016A8D2C
:10222000660F660F6B0D88EA0E946E048FE39CE9CF
:102230000197F1F700C00000B39494E0B912DCCF2D
:102240004A8D4F5F4A8F62E08EEA0E946E04EFE390
:10225000FCE93197F1F700C0000082E696E00E94A9
:102260005A0C8DE00E944E0C8DE00E944E0C61E0F5
:1022700080E00E94C20681E896E00E94A30662E028
:1022800081E00E94C20680ED95E00E94A306FFEF68
:1022900021EE84E0F15020408040E1F700C00000D2
:1022A00010E0EECC8CEE95E00E945A0C8DE00E947E
:1022B0004E0C8CE196E00E945A0C8DE00E944E0C70
:1022C0008DE00E944E0C9FEFE9E6F8E19150E0406E
:1022D000F040E1F700C00000D3CCAE01455E5F4F97
:1022E00063E08EEA0E948B048FE39CE90197F1F78B
:1022F00000C000008B8D803408F093C08DE00E94F8
:102300004E0C8DE00E944E0C87EA90E00E945A0C21
:10231000143088F40E94520C082F80ED800F8A3010
:10232000C8F7802F0E944E0CF701E10FF11D0083CA
:102330001F5F143079F78DE00E944E0C89EB90E01E
:102340000E945A0C3E0195E0690E711C63010E94C7
:10235000520C182F80ED810F8A30C8F7812F0E9410
:102360004E0CF60111936F01E415F50581F78DE030
:102370000E944E0CAE01465E5F4F63E08EEA0E9403
:102380008B048FE39CE90197F1F700C00000FE0188
:1023900031966F01B12C1B2DF60141916F016A8DB1
:1023A000660F660F610F8AEA0E946E048FE39CE954
:1023B0000197F1F700C00000F30141913F016A8DE0
:1023C000660F660F610F8CEA0E946E048FE39CE932
:1023D0000197F1F700C000001F5F1430E9F64A8D45
:1023E0004F5F4A8F63E08EEA0E946E04EFE3FCE9E0
:1023F0003197F1F700C0000082E696E00E945A0C87
:102400008DE00E944E0C8DE00E944E0CFFEF29E6FD
:1024100088E1F15020408040E1F700C0000010E06A
:102420002FCC8CEE95E00E945A0C8DE00E944E0C51
:102430008CE196E00E945A0C8DE00E944E0C8DE0DB
:102440000E944E0C9FEFE9E6F8E19150E040F04029
:10245000E1F700C0000014CC073309F0BCC28DE0E6
:102460000E944E0C8FE896E00E945A0C8DE00E946C
:102470004E0C80EB96E00E945A0C8DE00E944E0CB0
:102480008DE00E944E0C88E393E00E945A0C0E945B
:10249000520C90ED980F9A30D0F7182F0E944E0CE6
:1024A0008FEC810F8230E0F08EE193E00E945A0CB5
:1024B0008DE00E944E0C8DE00E944E0C88E393E06C
:1024C0000E945A0C0E94520C182F80ED810F8A3006
:1024D000C8F7812F0E944E0C8FEC810F823020F7BD
:1024E0008DE00E944E0C8DE00E944E0C81ED96E036
:1024F0000E945A0CCE0101966C010E94520C082FCA
:1025000080ED800F8A30C8F7802F0E944E0CF601B4
:1025100001936F018C8D9D8DE817F90771F78DE0A0
:102520000E944E0C88EF96E00E945A0C6E0195E0D6
:10253000C90ED11C0E94520C082F80ED800F8A30EA
:10254000C8F7802F0E944E0CF60101936F01E4152D
:10255000F50581F78DE00E944E0C113309F01BC187
:10256000AE01465E5F4F62E08EEA0E948B048FE30D
:102570009CE90197F1F700C000008A8D8111E9C044
:1025800010E0F5C0A501602F86EA0E948B04EFE3FE
:10259000FCE93197F1F700C00000A601602F88EA3E
:1025A0000E948B048FE39CE90197F1F700C00000C3
:1025B0000F5F9FEFA91AB90AEFEFCE1ADE0A1013C8
:1025C000E1CF44E0622D7E8D8F8D932D0E94AC046F
:1025D000813309F0B7C044E0BE01635F7F4F8DA136
:1025E0009EA10E94AC04813309F0ACC0182D882D47
:1025F00090E02A8D30E021503109821793070CF0CA
:102600006AC0880C880C912E5AA249A2FCA2EBA2A7
:10261000F32C312E47C0A601602F86EA0E948B045E
:102620008FE39CE90197F1F700C00000A501602F3E
:1026300088EA0E948B04EFE3FCE93197F1F700C0D0
:102640000000152D100FF6014081FFEFCF1ADF0AB1
:10265000612F86EA0E946E048FE39CE90197F1F7EF
:1026600000C00000F50140819FEFA91AB90A612F4F
:1026700088EA0E946E04EFE3FCE93197F1F700C0AD
:1026800000000F5FF8A10F13C6CFF42C9394892D8F
:1026900090E024E0820E2A8D30E02150310982172B
:1026A00093079CF40196880F880F6E0191E1C90E83
:1026B000D11C5E01E5E1AE0EB11CF4E0F80FF8A309
:1026C000082F582C581A4F2CA6CF132D49A05AA0CA
:1026D0003F2CEBA0FCA08FE197E00E945A0C8DE00C
:1026E0000E944E0C00E06A8D660F660F6450600F0A
:1026F0004FEF86EA0E946E048FE39CE90197F1F7A1
:1027000000C000006A8D660F660F6450600F4FEFC7
:1027100088EA0E946E04EFE3FCE93197F1F700C00C
:1027200000000F5F0430F9F64A8D41504A8F62E095
:102730008EEA0E946E048FE39CE90197F1F700C0D6
:10274000000056C18394012F8A8D881628F0182D19
:102750000EC000E010E0812E5E0199E0A90EB11CD0
:102760006E01EDE0CE0ED11C14E0100F0BCF9110D6
:1027700087CA80E497E00E945A0C8DE00E944E0CBC
:102780008EE697E00E945A0C8DE00E944E0C8DE080
:102790000E944E0C75CAAE01465E5F4F63E08EEA42
:1027A0000E948B048FE39CE90197F1F700C00000C1
:1027B0008A8D8111E9C010E0F7C0A501602F8AEA77
:1027C0000E948B04EFE3FCE93197F1F700C00000B1
:1027D000A601602F8CEA0E948B048FE39CE901978D
:1027E000F1F700C000000F5F9FEFA91AB90AEFEFE1
:1027F000CE1ADE0A0113E1CF44E0622D772D862D3B
:10280000932D0E94AC04813309F0B7C044E0BE01AF
:10281000635F7F4F8DA19EA10E94AC04813309F0BC
:10282000ACC0182D882D90E02A8D30E02150310960
:10283000821793070CF06AC0880C880C912E5AA25C
:1028400049A2FCA2EBA2F32C312E47C0A601602FB7
:102850008AEA0E948B048FE39CE90197F1F700C09C
:102860000000A501602F8CEA0E948B04EFE3FCE9D5
:102870003197F1F700C00000152D100FF6014081CF
:10288000FFEFCF1ADF0A612F8AEA0E946E048FE3FE
:102890009CE90197F1F700C00000F50140819FEF2E
:1028A000A91AB90A612F8CEA0E946E04EFE3FCE9D1
:1028B0003197F1F700C000000F5FF8A1F013C6CF09
:1028C000F42C9394892D90E024E0820E2A8D30E040
:1028D00021503109821793079CF40196880F880FC5
:1028E0006E0191E1C90ED11C5E01E5E1AE0EB11C95
:1028F000F4E0F80FF8A3082F582C581A4F2CA6CF45
:10290000132D49A05AA03F2CEBA0FCA08FE197E02B
:102910000E945A0C8DE00E944E0C00E06A8D660FFA
:10292000660F6450600F4FEF8AEA0E946E048FE3D7
:102930009CE90197F1F700C000006A8D660F660FF1
:102940006450600F4FEF8CEA0E946E04EFE3FCE9E5
:102950003197F1F700C000000F5F0430F9F64A8D9F
:1029600041504A8F63E08EEA0E946E048FE39CE937
:102970000197F1F700C000003BC08394012F8A8DBE
:10298000881638F0182D10C000E010E0812E7E8CE3
:102990006F8C5E0199E0A90EB11C6E01EDE0CE0EC8
:1029A000D11C14E0100F09CF91106AC98DE00E946C
:1029B0004E0C80E497E00E945A0C8DE00E944E0C71
:1029C0008EE697E00E945A0C8DE00E944E0C8DE03E
:1029D0000E944E0C55C9083309F052C98DE00E947F
:1029E0004E0C8DE00E944E0C8DE00E944E0C03C0F8
:1029F0009924939445C9A6960FB6F894DEBF0FBEEE
:102A0000CDBFDF91CF911F910F91FF90EF90DF909D
:102A1000CF90BF90AF909F908F907F906F905F907E
:102A20004F903F902F900895CF9388E094E00E94BC
:102A30005A0C8DE00E944E0C83E394E00E945A0CE5
:102A40008DE00E944E0C8FE797E00E945A0C8DE0BB
:102A50000E944E0C81E997E00E945A0C8DE00E9482
:102A60004E0C8DE00E944E0C8DEC91E00E945A0CB1
:102A70000E94520CC82F0E944E0C8DE00E944E0CFA
:102A80008DE00E944E0C80ED8C0F8A3088F71DC0BF
:102A90008CE997E00E945A0C8DE00E944E0C8DE06C
:102AA0000E944E0C88E393E00E945A0C0E94520C44
:102AB000C82F0E944E0C8DE00E944E0C8DE00E94AB
:102AC0004E0C80ED8C0F8A3088F78FEC8C0F8430A1
:102AD000F8F6C13319F40E94E10CA7CFC23309F014
:102AE00066C086EE94E00E945A0C8DE00E944E0C67
:102AF0008DE00E944E0C84E295E00E945A0C8DE01D
:102B00000E944E0C89E395E00E945A0C8DE00E94D1
:102B10004E0C81E495E00E945A0C8DE00E944E0C10
:102B200089E495E00E945A0C8DE00E944E0C81E5EC
:102B300095E00E945A0C8DE00E944E0C88E393E0D1
:102B40000E945A0C0E94520CC82F0E944E0C8DE01D
:102B50000E944E0C8DE00E944E0C80ED8C0F8A304E
:102B600088F71DC08AE695E00E945A0C8DE00E940D
:102B70004E0C8DE00E944E0C88E393E00E945A0CAC
:102B80000E94520CC82F0E944E0C8DE00E944E0CE9
:102B90008DE00E944E0C80ED8C0F8A3088F780ED1E
:102BA0008C0F8530F8F68C2F0E94D30A3ECFC333AA
:102BB00009F50E940F0B8AEA95E00E945A0C89E8F9
:102BC00095E00E945A0C85EA92E00E94A30680ECF0
:102BD0000E94150683EB92E00E94A3062FEF83ED7F
:102BE00090E3215080409040E1F700C000000E9437
:102BF000CF061BCFC43309F018CFCF910895F894B6
:022C0000FFCF04
:102C02003738392F3435362A3132332D43303D2B84
:102C120050617373776F72643A2000416363657326
:102C220073204772616E74656400416363657373F8
:102C32002044656E69656400547269616C73204C4E
:102C4200656674203A2000456E746572205573657E
:102C5200726E616D65203A2000456E746572205077
:102C6200617373776F7264203A200057454C434F6B
:102C72004D4520424F53530057454C434F4D45203D
:102C820041646D696E00547269616C73204C6566B3
:102C920074206265666F726520696E697469616C21
:102CA200697A696E6720416C61726D203A20005723
:102CB200656C636F6D65205573657200526F6F6D41
:102CC2002031204C6564006973205475726E65640E
:102CD200206F6E006973205475726E6564204F66B2
:102CE2006600526F6F6D2032204C656400526F6F28
:102CF2006D2033204C656400526F6F6D2034204C80
:102D0200656400526F6F6D2035204C656400576515
:102D12006C636F6D6520746F20536D617274004334
:102D2200686F6F7365206120726F6F6D2000312EA6
:102D320020526F6F6D203100322E20526F6F6D2046
:102D42003200332E20526F6F6D203300342E20520A
:102D52006F6F6D203400352E20526F6F6D2035005D
:102D6200362E20416C6C20526F6F6D7300596F7557
:102D7200722043686F696365203A2000506C656178
:102D820073652043686F6F736500416C6C204C65FE
:102D920064732061726520005475726E6564204F01
:102DA2004646005475726E204F4E203A2031005430
:102DB20075726E204F4646203A203000312E436F06
:102DC2006E74726F6C204C65647300322E44696DB0
:102DD2006D696E67204C616D7000332E436C6F73AA
:102DE200652074686520446F6F7200342E4C6F67E3
:102DF2006F757400546865204272696768746E6505
:102E020073730070657263656E74616765732061C8
:102E1200726500302E2030202520284F464629009A
:102E2200312E20323520252000322E20353020252B
:102E32002000332E20373520252000342E2031303B
:102E42003020252000202054686520646F6F722096
:102E520069730020202020436C6F736564005765FE
:102E62006C636F6D6520746F20536D6172742048BE
:102E72006F6D652053797374656D00506C65617375
:102E8200652063686F6F736520796F7572204D6F6F
:102E92006465202841646D696E2F5573657229201F
:102EA20000312E2041646D696E204D6F64652000F3
:102EB200322E2055736572204D6F64652000506C70
:102EC200656173652043686F6F7365206F6E6C79FF
:102ED2002031206F72203200596F75722063686F43
:102EE200696365203A2000312E20526F6F6D2031C8
:102EF2002000322E20526F6F6D20322000332E20A0
:102F0200526F6F6D20332000342E20526F6F6D2070
:102F1200342000352E20526F6F6D20352000362E62
:102F220020416C6C20726F6F6D732000506C656174
:102F320073652043686F6F7365206F6E6C792066CE
:102F4200726F6D203120746F2036005475726E20BE
:102F52004F6E203A2031005475726E204F66662003
:102F62003A203000506C656173652043686F6F735F
:102F7200652031206F72203000416C6C204C6564FA
:102F82007320617265205475726E6564204F6E0005
:102F9200416C6C204C6564732061726520547572BB
:102FA2006E6564204F666600312E20436F6E747228
:102FB2006F6C6C696E67204C69676874696E672014
:102FC20028526F6F6D203120746F20526F6F6D2009
:102FD200352900322E2044696D6D696E67206C615F
:102FE2006D7000332E204F70656E2074686520442A
:102FF2006F6F7200342E20436C6F736520746865A6
:1030020020446F6F7200352E204164642061646D2C
:10301200696E20746F207468652073797374656DAE
:1030220000362E20416464207573657220746F200F
:103032007468652073797374656D00372E2052654C
:103042006D6F7665206120757365722066726F6D93
:10305200207468652073797374656D00382E204C76
:103062006F67206F757400506C65617365204368EB
:103072006F6F7365206F6E6C792066726F6D203191
:1030820020746F203800506C656173652043686F4F
:103092006F7365206F6E65206F66207468652066A9
:1030A2006F6C6C6F77696E67206272696768746EA5
:1030B2006573732070657263656E746167657320F2
:1030C2003A202000302E20302520285475726E20A0
:1030D2004F6666204C65642900312E20323525204A
:1030E20000322E203530252000332E203735252082
:1030F20000342E20313030252020284D6178696D32
:10310200756D20506F7765722900506C656173652B
:103112002043686F6F7365206F6E6C792066726FE3
:103122006D203020746F2034000D005468652064D7
:103132006F6F72206973206F70656E656400202066
:103142002020204F70656E65640054686520646FAE
:103152006F7220697320636C6F73656400546865D5
:103162002061646D696E2069732061646465642006
:103172007375636365737366756C6C790041646D16
:10318200696E20697320616464656400536F7272B2
:10319200792C20746865206D6178696D756D206E7B
:1031A200756D62657220666F722075736572732029
:1031B2006973203634207573657273005468652014
:1031C20073797374656D2063616E27742061646422
:1031D200206D6F726500312E2052656D6F7465200F
:1031E200557365722028554152542900322E204CC5
:1031F20043442026204B65797061642055736572C3
:1032020020005468652075736572206973206164BB
:10321200646564207375636365737366756C6C793A
:1032220000557365722069732061646465640031BE
:103232002E2044656C65746520612072656D6F7423
:10324200652028554152542920557365722020006B
:10325200322E2044656C65746520616E204C4344B7
:103262002026204B65797061642055736572202099
:1032720000456E746572205573657227732055730D
:1032820065726E616D6520746F2062652064656C85
:1032920065746564203A2000456E7465722055732A
:1032A200657227732050617373776F726420746F35
:1032B2002062652064656C65746564203A20005460
:1032C200686520757365722069732064656C657426
:1032D2006564207375636365737366756C6C7900DE
:1032E20054686520656E74657265642055736572F5
:1032F2006E616D6520262050617373776F72642052
:10330200617265206E6F7420666F756E6400506C1A
:10331200656173652054727920616761696E00335B
:103322002E20436C6F73652074686520446F6F7242
:1033320000342E204C6F67206F757400506C6561ED
:1033420073652043686F6F7365206F6E6C792066BA
:0C335200726F6D203120746F2034000079
:00000001FF
