:100000000C942A000C9483000C9447000C94470035
:100010000C9447000C9447000C9447000C94470044
:100020000C9447000C9447000C9447000C94470034
:100030000C9447000C9447000C9447000C94470024
:100040000C9447000C9447000C9447000C94470014
:100050000C94470011241FBECFE5D8E0DEBFCDBF12
:1000600017E0A0E6B0E0EAEDFBE202C005900D92D9
:10007000AC3BB107D9F727E0ACEBB7E001C01D926C
:10008000AC3BB207E1F70E94DD0A0C94EB150C942F
:1000900000008B9A8C9A94980895979A98B384E06C
:1000A000892788BB08950E9474008B32910524F43F
:1000B00093989798C29808959C0129533109293142
:1000C000310520F4939A9798C29808958335910545
:1000D0001CF093980E944D000895379A3E9A97B16C
:1000E000892B87B9329A0895369A349BFECF85E3DF
:1000F0008A95F1F7000024B185B190E0982F882708
:10010000820F911D08951F920F920FB60F92112426
:100110005F926F927F928F929F92AF92BF92CF9297
:10012000DF92EF92FF920F931F932F933F934F9382
:100130005F936F937F938F939F93AF93BF93EF934F
:10014000FF93CF93DF93CDB7DEB76197DEBFCDBF0F
:1001500019820E947907AE014F5F5F4F63E08EEA1C
:100160000E9487048FE39CE90197F1F700C000002B
:100170006894992491F85E0196E0A90EB11C7A2C3E
:100180008B2C01C0982E66246394690C8DEA90E054
:100190000E949F068EE00E9411067E01E2E0EE0EB4
:1001A000F11C0E94C405182F80ED810F8A30C8F71A
:1001B000F70111937F01EA15FB0539F58CE00E94E8
:1001C0001106812F0E947606FFEF25EA8EE0F1509E
:1001D00020408040E1F700C000009FEFE9E6F8E131
:1001E0009150E040F040E1F700C000000E94CB06D3
:1001F00080E790E00E949F068EE00E9411067E013B
:1002000026E0E20EF11C00E00DC0812F0E94760670
:100210008FEF95EAEEE081509040E040E1F700C0BA
:100220000000BFCF0E94C405182F80ED810F8A30D7
:10023000C8F7F70111937F01033001F58CE00E94AC
:100240001106812F0E947606FFEF27E883E1F15027
:1002500020408040E1F700C000006DE080E00E9497
:10026000BE068AE20E9476069FEFE1EEF4E091502E
:10027000E040F040E1F700C0000021C0812F0E9463
:1002800076062FEF87E893E1215080409040E1F718
:1002900000C000006AE0600F80E00E94BE068AE2B3
:1002A0000E947606EFEFF1EE24E0E150F0402040AE
:1002B000E1F700C000000F5F043009F0B3CF8FEF0B
:1002C00099E6E8E181509040E040E1F700C000008D
:1002D0000E94CB06898181114BC057C0A601612FB6
:1002E0008AEA0E9487048FE39CE90197F1F700C036
:1002F0000000A701612F8CEA0E948704EFE3FCE96C
:100300003197F1F700C000001F5FFFEFCF1ADF0A3F
:100310002FEFE21AF20A1013E1CF44E0BE01665F4C
:100320007F4FCE0102960E94A8048133D9F444E0A5
:10033000BE01625F7F4F872D982D0E94A8048133F4
:1003400089F48BE790E00E949F068FEF99E6E8E141
:1003500081509040E040E1F700C000000E94CB06D1
:10036000962C32C05394102F8981581618F00DC066
:1003700010E0512C6E01FAE0CF0ED11C7E012EE070
:10038000E20EF11C04E0010FA9CF8AE890E00E9480
:100390009F0680EC0E94110688E990E00E949F066B
:1003A00080E3890D0E9476068FEF99E6E8E181509F
:1003B0009040E040E1F700C000000E94CB068FEFC4
:1003C000890D833008F4DECE911002C00E949E0A8F
:1003D0000E942A09FFEF20E782E0F1502040804090
:1003E000E1F700C0000061960FB6F894DEBF0FBEC3
:1003F000CDBFDF91CF91FF91EF91BF91AF919F91D1
:100400008F917F916F915F914F913F912F911F91AC
:100410000F91FF90EF90DF90CF90BF90AF909F90A3
:100420008F907F906F905F900F900FBE0F901F90F6
:1004300018950E943A060E94B30587E690E00E9454
:100440002E0C0E94EA0A0E946B0A0E94BD0A0E94BA
:10045000690A83E090E00E946D000E94E80A0E9411
:1004600049000E94A7050E94670408952F923F92B9
:100470004F925F926F927F928F929F92AF92BF92B4
:10048000CF92DF92EF92FF920F931F93CF93DF9360
:10049000CDB7DEB763970FB6F894DEBF0FBECDBF02
:1004A00019821A820E94760C813309F014C1AE01C0
:1004B0004F5F5F4F61E08EEA0E9487048FE39CE903
:1004C0000197F1F700C000006894772471F84E019D
:1004D00097E0890E911C5E01EBE0AE0EB11C01C0ED
:1004E000782E66246394670C87EA90E00E944C0C97
:1004F0007E01F3E0EF0EF11C0E94440C182F0E94C5
:10050000400C80ED810F8A30B8F7F70111937F011D
:100510008E169F0689F78DE00E94400C89EB90E0D3
:100520000E944C0C7E01F7E0EF0EF11C0E94440C7F
:10053000182F0E94400C80ED810F8A30B8F7F70128
:1005400011937F01EA15FB0589F78DE00E94400CAD
:10055000CE010F967C018501D12CA8016D2D80EA7A
:100560000E948704EFE3FCE93197F1F700C0000037
:1005700068E06D0DA70180EA0E9487048FE39CE983
:100580000197F1F700C00000D3940F5F1F4F9FEF5A
:10059000E91AF90AE4E0DE12E0CF44E0B501CE0149
:1005A00003960E94A804813321F08981811166C0DD
:1005B0006EC044E0BE01615F7F4FC4010E94A80489
:1005C000813399F78DE00E94400C8DE00E94400C31
:1005D0008BEC90E00E944C0C8DE00E94400C8DE072
:1005E0000E94400C59C1A701612F82EA0E94870432
:1005F0008FE39CE90197F1F700C00000A601612F8D
:1006000084EA0E948704EFE3FCE93197F1F700C028
:1006100000001F5FFFEFEF1AFF0A8FEFC81AD80A1A
:100620001013E1CF44E0B501CE0103960E94A80467
:100630008133F1F444E0BE01615F7F4FC4010E9449
:10064000A8048133A9F48BE790E00E944C0C8DE064
:100650000E94400C8DE00E94400C88ED90E00E94CA
:100660004C0C8DE00E94400C8DE00E94400C14C1A7
:100670005394102F8981581618F009C010E0512C9E
:1006800004E0010FFE013F966F017501ACCF8AE8CF
:1006900090E00E944C0C8DE00E94400C86EE90E0B1
:1006A0000E944C0C80E3870D0E94400C8DE00E945C
:1006B000400C8DE00E94400C8DE00E94400C8FEFBA
:1006C000870D833008F40CCF711002C00E949E0A7F
:1006D0000E94000EE3C0AE014E5F5F4F62E08EEA03
:1006E0000E9487048FE39CE90197F1F700C00000A6
:1006F0006894772471F85E0197E0A90EB11C4E0151
:10070000EBE08E0E911CC82CD92C6A2C5B2C01C0FE
:10071000782EF1E0F70DFB8B87EA90E00E944C0CFD
:100720007E0183E0E80EF11C0E94440C182F0E9409
:10073000400C80ED810F8A30B8F7F70111937F01EB
:10074000AE16BF0689F78DE00E94400C89EB90E061
:100750000E944C0C7E01F7E0EF0EF11C0E94440C4D
:10076000182F0E94400C80ED810F8A30B8F7F701F6
:1007700011937F01E815F90589F78DE00E94400C7F
:100780008DE00E94400C8DE00E94400C8A81811116
:1007900051C05EC0A701642D86EA0E9487048FE3E2
:1007A0009CE90197F1F700C00000A801642D88EAD8
:1007B0000E948704EFE3FCE93197F1F700C00000E5
:1007C0004394FFEFEF1AFF0A0F5F1F4F3410E2CF81
:1007D00044E06C2D7D2DCE0103960E94A804813348
:1007E00019F544E0BE01615F7F4F862D952D0E9473
:1007F000A8048133C9F48BE790E00E944C0C8DE093
:100800000E94400C8DE00E94400C8FE091E00E941D
:100810004C0C8DE00E94400C8DE00E94400C8DE05D
:100820000E94400C7B8831C02394432C8A81281677
:1008300018F00EC0412C212C7E018BE0E80EF11C3B
:100840008E01015F1F4F6894332432F8340CA2CF1D
:100850008AE890E00E944C0C8DE00E94400C86EEED
:1008600090E00E944C0C80E3870D0E94400C8DE0CC
:100870000E94400C8DE00E94400C8DE00E94400CD4
:100880008FEF870D833008F443CF711002C00E94B0
:100890009E0A0E94001502C0762C16CF63960FB6F2
:1008A000F894DEBF0FBECDBFDF91CF911F910F91A6
:1008B000FF90EF90DF90CF90BF90AF909F908F9080
:1008C0007F906F905F904F903F902F9008950E947F
:1008D00046050895CF93DF93D62FC42F0E944A0573
:1008E0008D2F0E9484058FE39CE90197F1F700C0EA
:1008F00000008C2F0E9484058FE39CE90197F1F79B
:1009000000C000000E94A105DF91CF9108950F93D0
:100910001F93CF93DF93C82FD62F8A010E944A05D9
:100920008D2F0E94840581E08C0F0E9467050E9434
:100930009605F80180838FE39CE90197F1F700C0E9
:1009400000000E94A105DF91CF911F910F910895A2
:1009500050E041155105B1F0FC013081FB012081CF
:10096000321312C0FC013196DB011196480F591F5A
:1009700004C021919D91291309C0E417F507C9F717
:1009800081E3089581E3089580E3089580E3089565
:10099000CF93C0E041E36C2F80EA0E946A048FE3AA
:1009A0009CE90197F1F700C0000068E06C0F41E39B
:1009B00080EA0E946A048FE39CE90197F1F700C086
:1009C0000000CF5FC43031F7CF910895CF93DF930C
:1009D00000D01F92CDB7DEB719821A821B82AE01FA
:1009E0004F5F5F4F61E08EEA0E9487048FE39CE9CE
:1009F0000197F1F700C00000AE014E5F5F4F62E06B
:100A00008EEA0E9487048FE39CE90197F1F700C00A
:100A10000000AE014D5F5F4F63E08EEA0E948704E5
:100A20008FE39CE90197F1F700C0000089818F3FB7
:100A300059F440E061E08EEA0E946A048FE39CE989
:100A40000197F1F700C000008A818F3F59F440E020
:100A500062E08EEA0E946A048FE39CE90197F1F755
:100A600000C000008B818F3F59F440E063E08EEAC4
:100A70000E946A048FE39CE90197F1F700C000002F
:100A80000F900F900F90DF91CF91089511B88FEFD5
:100A900080B9089594EA96BF06B607FEFDCF91B1DE
:100AA000987F983071F483B984E886BF06B607FE54
:100AB000FDCF81B1887F883131F0803231F083E021
:100AC000089580E0089581E0089582E0089594EA11
:100AD00096BF06B607FEFDCF91B1987F903171F4B5
:100AE00083B984E886BF06B607FEFDCF81B1887F53
:100AF000803431F0883431F083E0089580E0089547
:100B000081E0089582E0089583B984E886BF06B63F
:100B100007FEFDCF81B1887F883221F0803321F03C
:100B200082E0089580E0089581E0089586B78460AA
:100B300086BF86B7806886BF06B607FEFDCF83B145
:100B4000089584E986BF06B604FCFDCF08958A980F
:100B50008BB780648BBF85B78D7F85BF85B78E7F50
:100B600085BF78940895A498A598A698A798AC9A5C
:100B7000AD9AAE9AAF9ABC9ABD9ABE9ABF9AC49AE1
:100B8000C59AC69AC79A08950F931F93CF93DF9380
:100B9000C4E0D0E080E0A1E0B0E098B38D010C2E7D
:100BA00002C0000F111F0A94E2F7202F2095922314
:100BB00098BBFE01E45AFF4F64E070E023B3962F28
:100BC000AD01062E02C0440F551F0A94E2F730E033
:100BD00024233523062E02C0359527950A94E2F783
:100BE000232B69F4808123B330E024233523092E9D
:100BF00002C0359527950A94E2F7232BA1F36F5F86
:100C00007F4F349668307105C9F698B3092B08BB3D
:100C10002196C830D10509F6DF91CF911F910F9130
:100C200008959BB39F70282F207F922B9BBBD89851
:100C3000D998DA9A35E03A95F1F70000DA98EFE1C1
:100C4000F3E03197F1F700C000002BB32F70F0E113
:100C50008F9FC0011124822B8BBBDA9A35E03A9525
:100C6000F1F70000DA988FE39FE10197F1F700C0F8
:100C700000000895D09AD19AD29AD898D998DA9843
:100C8000D49AD59AD69AD79ADC98DD98DE98DF98D0
:100C900082E00E9411068FE99FE00197F1F700C002
:100CA000000088E20E9411068FE99FE00197F1F7AA
:100CB00000C0000081E00E9411068FE99FE00197CB
:100CC000F1F700C000008CE00E9411068FE99FE060
:100CD0000197F1F700C0000086E00E9411068FE93D
:100CE0009FE00197F1F700C0000008959BB39F704B
:100CF000282F207F922B9BBBD89AD998DA9A35E07F
:100D00003A95F1F70000DA98EFE1F3E03197F1F767
:100D100000C000002BB32F70F0E18F9FC0011124A1
:100D2000822B8BBBDA9A35E03A95F1F70000DA981E
:100D30008FE39FE10197F1F700C0000008950F9342
:100D40001F93CF93FC0180818823A1F08F01C0E025
:100D50000E9476062FEF80E792E02150804090407D
:100D6000E1F700C00000CF5FF801EC0FF11D8081BA
:100D70008111EECFCF911F910F910895823050F4E1
:100D8000603140F490E4899F600D1124862F8068C3
:100D90000E941106089581E00E9411060895833390
:100DA00009F447C028F4813351F0823329F195C00A
:100DB000843309F45BC0853309F474C08EC060339A
:100DC00079F0613309F089C08CE191E00E949F06BF
:100DD00080EC0E94110687E291E00E949F067DC090
:100DE0008CE191E00E949F0680EC0E94110684E352
:100DF00091E00E949F0671C0603379F0613309F081
:100E00006CC082E491E00E949F0680EC0E94110673
:100E100087E291E00E949F0660C082E491E00E9418
:100E20009F0680EC0E94110684E391E00E949F06D9
:100E300054C0603379F0613309F04FC08DE491E024
:100E40000E949F0680EC0E94110687E291E00E94BA
:100E50009F0643C08DE491E00E949F0680EC0E94B3
:100E6000110684E391E00E949F0637C0603371F061
:100E7000613399F588E591E00E949F0680EC0E941D
:100E8000110687E291E00E949F0627C088E591E065
:100E90000E949F0680EC0E94110684E391E00E946C
:100EA0009F061BC0603371F06133B9F483E691E0B3
:100EB0000E949F0680EC0E94110687E291E00E944A
:100EC0009F060BC083E691E00E949F0680EC0E9483
:100ED000110684E391E00E949F062FEF83ED90E3DB
:100EE000215080409040E1F700C000000E94CB06F6
:100EF00008958EE691E00E949F0680EC0E94110604
:100F00008FEC92E00E949F062FEF83ED90E321503B
:100F100080409040E1F700C000000E94CB06089599
:100F20001F93CF93DF938FE791E00E949F062FEFEF
:100F300083ED90E3215080409040E1F700C0000035
:100F40000E94CB068EE891E00E949F0680EC0E94F2
:100F5000110688E991E00E949F062FEF89E698E14B
:100F6000215080409040E1F700C000000E94CB0675
:100F700082EA91E00E949F0680EC0E9411068CEAB2
:100F800091E00E949F062FEF89E698E12150804072
:100F90009040E1F700C000000E94CB0686EB91E094
:100FA0000E949F0680EC0E94110680EC91E00E9456
:100FB0009F062FEF89E698E1215080409040E1F7AD
:100FC00000C000000E94CB068DEC91E00E949F06BD
:100FD0008FE00E9411060E94C405C82F80ED8C0F7F
:100FE0008A30C8F78C2F0E9476062FEF89E698E1A9
:100FF000215080409040E1F700C000000E94CB06E5
:101000008FEC8C0F863008F4DAC08CED91E00E94F2
:101010009F0680EC0E9411068FE993E00E949F06D4
:101020002FEF83ED90E3215080409040E1F700C026
:1010300000000E94CB060E94C405C82F80ED8C0FD3
:101040008A30C8F78C2F0E9476062FEF89E698E148
:10105000215080409040E1F700C000000E94CB0684
:101060008FEC8C0F863088F6AAC00E94C405D82F5A
:1010700010ED180F1A30C8F70E9476062FEF83ED97
:1010800090E3215080409040E1F700C000000E94B2
:10109000CB06123080F18CED91E00E949F0680EC2F
:1010A0000E94110663E081E00E94BE0682ED93E09B
:1010B0000E949F062FEF83ED90E3215080409040E7
:1010C000E1F700C000000E94CB060E94C405D82FA3
:1010D00010ED180F1A30C8F70E9476062FEF89E638
:1010E00098E1215080409040E1F700C000000E944C
:1010F000CB06123080F6C63309F058C0D13359F50B
:1011000061E381E30E94720A62E381E30E94720A52
:1011100063E381E30E94720A64E381E30E94720A3E
:1011200065E381E30E94720A8AEE91E00E949F06C5
:1011300080EC0E94110686EE93E00E949F062FEF3E
:1011400083ED90E3215080409040E1F700C0000023
:101150000E94CB064EC061E380E30E94720A62E304
:1011600080E30E94720A63E380E30E94720A64E3F0
:1011700080E30E94720A65E380E30E94720A8AEEAD
:1011800091E00E949F0680EC0E94110688EF91E09A
:101190000E949F062FEF83ED90E321508040904006
:1011A000E1F700C000000E94CB0623C06C2F8D2FFA
:1011B0000E94720A6D2F8C2F0E94CF061AC08CE0FD
:1011C0000E94110683E092E00E949F0680EC0E943C
:1011D00011068FE092E00E949F062FEF87EA91E6CA
:1011E000215080409040E1F700C000000E94CB06F3
:1011F0003CCFDF91CF911F9108958CE192E00E9446
:101200009F0680EC0E9411068BE292E00E949F06EE
:101210002FEF89E698E1215080409040E1F700C02F
:1012200000000E94CB068AE392E00E949F0680ECB9
:101230000E9411068BE492E00E949F062FEF89E640
:1012400098E1215080409040E1F700C000000E94EA
:10125000CB060895CF93DF930E94FD088DEC91E0BB
:101260000E949F068FE00E9411060E94C405C82FAD
:1012700080ED8C0F8A30C8F78C2F0E9476062FEFF6
:1012800089E698E1215080409040E1F700C00000DD
:101290000E94CB068FEC8C0F8430D8F18EE00E9438
:1012A00011068CED91E00E949F0680EC0E941106D1
:1012B0008FEA97E00E949F062FEF83ED90E3215085
:1012C00080409040E1F700C000000E94CB060E94E1
:1012D000FD088DEC91E00E949F068FE00E941106B0
:1012E0000E94C405C82F80ED8C0F8A30C8F78C2F60
:1012F0000E9476062FEF89E698E1215080409040C9
:10130000E1F700C000000E94CB068FEC8C0F843008
:1013100028F68CE00E941106C13319F40E94900750
:101320009BCFC23309F0B4C084E592E00E949F06CF
:1013300080EC0E94110683E692E00E949F062FEF48
:1013400089E698E1215080409040E1F700C000001C
:101350000E94CB0683E792E00E949F0680EC0E94E9
:10136000110680E892E00E949F062FEF89E698E13F
:10137000215080409040E1F700C000000E94CB0661
:1013800089E892E00E949F0680EC0E94110682E9A3
:1013900092E00E949F062FEF89E698E1215080405D
:1013A0009040E1F700C000000E94CB068BE992E07C
:1013B0000E949F0680EC0E9411068AE595E00E943B
:1013C0009F062FEF89E698E1215080409040E1F799
:1013D00000C000000E94CB068DEC91E00E949F06A9
:1013E0008FE00E9411060E94C405C82FD0EDD80FCF
:1013F000DA30C8F70E9476062FEF89E698E121508F
:1014000080409040E1F700C000000E94CB06D5303C
:10141000C0F18EE00E9411068CED91E00E949F06C3
:1014200080EC0E9411068DE795E00E949F062FEF49
:1014300083ED90E3215080409040E1F700C0000030
:101440000E94CB060E94FD088DEC91E00E949F0651
:101450008FE00E9411060E94C405C82FD0EDD80F5E
:10146000DA30C8F70E9476062FEF89E698E121501E
:1014700080409040E1F700C000000E94CB06D530CC
:1014800040F68CE00E9411068C2F0E94C50AE4CE23
:10149000C333C9F40E94010B85EA92E00E949F06C3
:1014A00080EC0E94110683EB92E00E949F062FEFD2
:1014B00083ED90E3215080409040E1F700C00000B0
:1014C0000E94CB06C9CEC43309F0C6CEDF91CF91BE
:1014D00008958F9A0895B89AB99AA29AA39A8E9A63
:1014E000BA9A08958133A1F4613311F4C09A089532
:1014F000623311F4C19A0895633311F4AA9A0895DE
:10150000643311F4AB9A08956533B9F4969A08954B
:10151000803399F4613311F4C0980895623311F463
:10152000C1980895633311F4AA980895643311F4AF
:10153000AB980895653309F49698089551E042E018
:1015400034E028E090E4979A88B3852788BB88B375
:10155000842788BB85B3832785BB85B3822785BB5A
:1015600082B3892782BB6FEF79E688E161507040D2
:101570008040E1F700C00000E6CFBB9A22E342E3DF
:1015800061E380E00E94060B0895803311F41CBED5
:101590000895813319F48FE38CBF0895823319F4D1
:1015A0008FE78CBF0895833319F48FEB8CBF0895B8
:1015B000843311F48FEF8CBF08950E9419020E94AA
:1015C000C8040E94E6040E94620C0E943602FDCF0D
:1015D000D39808958D9A22E342E362E381E00E946A
:1015E000060B8FE39CE997BD86BD1DBC1CBC87EB39
:1015F0009BE09BBD8ABD089582E894E19BBD8ABDB6
:10160000089587EB9BE09BBD8ABD0895811186C03C
:10161000203351F483B78E7F83BF83B78D7F83BF21
:1016200083B78B7F83BF3BC0213351F483B7816085
:1016300083BF83B78D7F83BF83B78B7F83BF2FC06B
:10164000223351F483B78E7F83BF83B7826083BF19
:1016500083B78B7F83BF23C0233351F483B781606B
:1016600083BF83B7826083BF83B78B7F83BF17C07D
:10167000243351F483B78E7F83BF83B78D7F83BFBD
:1016800083B7846083BF0BC0253349F483B781607F
:1016900083BF83B78D7F83BF83B7846083BF60338D
:1016A00039F483B7877F83BF83B78F7B83BF11C034
:1016B000623339F483B7886083BF83B7806483BFA4
:1016C00008C0613331F483B7877F83BF83B78064F9
:1016D00083BF403339F483B78F7E83BF83B78F7D59
:1016E00083BF0895413339F483B78F7D83BF83B7B8
:1016F000806183BF0895423339F483B78F7E83BFFF
:1017000083B7806283BF0895433309F0A0C083B7D5
:10171000806183BF83B7806283BF0895813009F001
:1017200096C0203351F48EB58E7F8EBD8EB58D7FE1
:101730008EBD8EB58B7F8EBD3BC0213351F48EB5EF
:1017400081608EBD8EB58D7F8EBD8EB58B7F8EBD3B
:101750002FC0223351F48EB58E7F8EBD8EB5826040
:101760008EBD8EB58B7F8EBD23C0233351F48EB5D5
:1017700081608EBD8EB582608EBD8EB58B7F8EBD35
:1017800017C0243351F48EB58E7F8EBD8EB58D7FFC
:101790008EBD8EB584608EBD0BC0253349F48EB5E9
:1017A00081608EBD8EB58D7F8EBD8EB584608EBD01
:1017B000603369F48FB58E7F8FBD8FB58D7F8FBD00
:1017C0008EB5877F8EBD8EB58F7E8EBD1DC0623378
:1017D00069F48FB58E7F8FBD8FB582608FBD8EB55A
:1017E00088608EBD8EB580618EBD0EC0613361F4A0
:1017F0008FB58E7F8FBD8FB582608FBD8EB5877F91
:101800008EBD8EB580618EBD403339F48FB58F7B30
:101810008FBD8FB58F778FBD0895413339F48FB564
:1018200080648FBD8FB58F778FBD0895423339F4B3
:101830008FB58F7B8FBD8FB580688FBD0895433383
:1018400031F48FB580648FBD8FB580688FBD0895EA
:1018500080B5886080BD08955698089590BD89B977
:101860000E942C0C539A549A80B5806880BD0E94C7
:10187000280C80B5826080BD80B5846080BD0895ED
:101880005D9BFECF8CB908955F9904C00E94530000
:101890005F9BFCCF8CB108950F931F93CF93FC01F6
:1018A0008081882359F08F01C0E00E94400CCF5FF7
:1018B000F801EC0FF11D80818111F7CFCF911F91BD
:1018C0000F9108958EEB92E00E944C0C8DE00E94E7
:1018D000400C8DE00E94400C2FEF85EA9EE02150E5
:1018E00080409040E1F700C000000895CF938BED59
:1018F00092E00E944C0C8DE00E94400C81E093E04D
:101900000E944C0C8DE00E94400C80E193E00E940C
:101910004C0C8DE00E94400C8DE00E94400C2FEF9B
:1019200085EA9EE0215080409040E1F700C0000031
:101930008DEC91E00E944C0C0E94440CC82F0E9438
:10194000400C80ED8C0F8A30B8F78DE00E94400C7F
:101950008DE00E94400C8FEC8C0F823008F18EE1FC
:1019600093E00E944C0C8DE00E94400C8DE00E94A0
:10197000400C88E393E00E944C0C0E94440CC82F5A
:101980000E94400C80ED8C0F8A30B8F78DE00E94E9
:10199000400C8DE00E94400C8FEC8C0F8230F8F6EA
:1019A0008C2FCF910895CF93DF9387E493E00E942B
:1019B0004C0C8DE00E94400C82E593E00E944C0CA0
:1019C0008DE00E94400C8DE593E00E944C0C8DE070
:1019D0000E94400C88E693E00E944C0C8DE00E942F
:1019E000400C83E793E00E944C0C8DE00E94400C79
:1019F0008EE793E00E944C0C8DE00E94400C8DE03D
:101A00000E94400C88E393E00E944C0C0E94440C1E
:101A1000C82F0E94400C8DE00E94400C8DE00E9477
:101A2000400C80ED8C0F8A3088F71DC08CE893E065
:101A30000E944C0C8DE00E94400C8DE00E94400CF6
:101A400088E393E00E944C0C0E94440CC82F0E9433
:101A5000400C8DE00E94400C8DE00E94400C80ED17
:101A60008C0F8A3088F78FEC8C0F8630F8F68BEA73
:101A700093E00E944C0C8DE00E94400C87EB93E0B9
:101A80000E944C0C8DE00E94400C8DE00E94400CA6
:101A90008DEC91E00E944C0C0E94440CD82F0E94C7
:101AA000400C8DE00E94400C8DE00E94400C80EDC7
:101AB0008D0F8A3088F71DC084EC93E00E944C0C97
:101AC0008DE00E94400C8DE00E94400C88E393E082
:101AD0000E944C0C0E94440CD82F0E94400C8DE0B8
:101AE0000E94400C8DE00E94400C80ED8D0F8A30EA
:101AF00088F780ED8D0F8230F8F6C63309F06CC0A0
:101B0000D133A9F561E381E30E94720A62E381E3C4
:101B10000E94720A63E381E30E94720A64E381E334
:101B20000E94720A65E381E30E94720A89ED93E0E4
:101B30000E944C0C8DE00E94400C8DE00E94400CF5
:101B40008AEE91E00E949F0680EC0E94110686EECC
:101B500093E00E949F062FEF83ED90E32150804099
:101B60009040E1F700C000000E94CB063DC061E359
:101B700080E30E94720A62E380E30E94720A63E3D8
:101B800080E30E94720A64E380E30E94720A65E3C4
:101B900080E30E94720A80EF93E00E944C0C8DE07B
:101BA0000E94400C8DE00E94400C8AEE91E00E9461
:101BB0009F0680EC0E9411068DEF93E00E949F0625
:101BC0002FEF83ED90E3215080409040E1F700C07B
:101BD00000000E94CB0608C06C2F8D2F0E94720A55
:101BE0006D2F8C2F0E94CF068DE00E94400C8DE05F
:101BF0000E94400C8DE00E94400CDF91CF9108952F
:101C00002F923F924F925F926F927F928F929F920C
:101C1000AF92BF92CF92DF92EF92FF920F931F93FA
:101C2000CF93DF93CDB7DEB7A6970FB6F894DEBF9C
:101C30000FBECDBF198E1A8E1B8E912C10E0CE01D7
:101C400005969D8F8C8F2E0199E0490E511CFE0147
:101C500031967F01242C5E8EEF8F3F2CFC8DFDA3EF
:101C60002D8D2EA388E094E00E944C0C8DE00E9404
:101C7000400C83E394E00E944C0C8DE00E94400CE9
:101C800083E494E00E944C0C8DE00E94400C84E5BB
:101C900094E00E944C0C8DE00E94400C86E694E09B
:101CA0000E944C0C8DE00E94400C81E894E00E9460
:101CB0004C0C8DE00E94400C8BE994E00E944C0C8F
:101CC0008DE00E94400C8CEB94E00E944C0C8DE067
:101CD0000E94400C8DE00E94400C8DEC91E00E942F
:101CE0004C0C0E94440C90ED980F9A30D0F7082FBE
:101CF0000E94400C8FEC800F883008F187EC94E054
:101D00000E944C0C8DE00E94400C8DE00E94400C23
:101D100088E393E00E944C0C0E94440C082F0E9420
:101D2000400C80ED800F8A30B8F78DE00E94400CA7
:101D30008DE00E94400C8FEC800F8830F8F6013364
:101D400019F40E94D30C8ECF023309F06CC08DE0E1
:101D50000E94400C8DE00E94400C86EE94E00E94B0
:101D60004C0C8DE00E94400C8DE00E94400C84E2FF
:101D700095E00E944C0C8DE00E94400C89E395E0B8
:101D80000E944C0C8DE00E94400C81E495E00E9482
:101D90004C0C8DE00E94400C89E495E00E944C0CB4
:101DA0008DE00E94400C81E595E00E944C0C8DE096
:101DB0000E94400C88E393E00E944C0C0E94440C6B
:101DC000082F0E94400C8DE00E94400C8DE00E9484
:101DD000400C80ED800F8A3088F71DC08AE695E0C0
:101DE0000E944C0C8DE00E94400C8DE00E94400C43
:101DF00088E393E00E944C0C0E94440C082F0E9440
:101E0000400C8DE00E94400C8DE00E94400C80ED63
:101E1000800F8A3088F780ED800F8530F8F6802FAC
:101E20000E94C50A1FCF033359F50E94FC0A89E8B6
:101E300095E00E944C0C8DE00E94400C8BE895E0F0
:101E40000E944C0C89E895E00E944C0C8DE00E94A9
:101E5000400C85EA92E00E949F0680EC0E941106E9
:101E60008EE995E00E949F068FEF99E6E8E18150A8
:101E70009040E040E1F700C000000E94CB06F2CEA7
:101E8000043359F50E94010B89E895E00E944C0C3F
:101E90008DE00E94400C8AEA95E00E944C0C89E893
:101EA00095E00E944C0C8DE00E94400C85EA92E087
:101EB0000E949F0680EC0E94110683EB92E00E9434
:101EC0009F06FFEF29E688E1F15020408040E1F7CE
:101ED00000C000000E94CB06C5CE053309F0CFC07C
:101EE000AE01455E5F4F61E08EEA0E948704EFE33A
:101EF000FCE93197F1F700C000008B8D803408F0C9
:101F0000A3C08DE00E94400C8DE00E94400C87EA47
:101F100090E00E944C0C143088F40E94440C082F6E
:101F200080ED800F8A30C8F7802F0E94400CF701A7
:101F3000E10FF11D00831F5F143079F78DE00E94DF
:101F4000400C89EB90E00E944C0C3E01F5E06F0ED6
:101F5000711C63010E94440C182F80ED810F8A30A0
:101F6000C8F7812F0E94400CF60111936F01E41510
:101F7000F50581F78DE00E94400CAE01475E5F4F92
:101F800061E08EEA0E9487048FE39CE90197F1F7F4
:101F900000C00000FE0131966F01B12C1B2DF6012F
:101FA00041916F01698D660F660F610F82EA0E9491
:101FB0006A048FE39CE90197F1F700C00000F30188
:101FC00041913F01698D660F660F610F84EA0E949F
:101FD0006A048FE39CE90197F1F700C000001F5FDE
:101FE0001430E9F6498D4F5F498F61E08EEA0E9417
:101FF0006A04EFE3FCE93197F1F700C000008DEBD4
:1020000095E00E944C0C8DE00E94400C8DE00E94F7
:10201000400C61E080E00E94BE068DED95E00E94DC
:102020009F0662E081E00E94BE0680ED95E00E947E
:102030009F06FFEF29E688E1F15020408040E1F75C
:1020400000C0000010E00ECE8CEE95E00E944C0C1B
:102050008DE00E94400C8CE196E00E944C0C8DE0DB
:102060000E94400C8DE00E94400C9FEFE9E6F8E1F1
:102070009150E040F040E1F700C00000F3CD06339E
:1020800009F0D6C18DE00E94400C8DE00E94400C0A
:1020900086E396E00E944C0C8DE00E94400C8CE49C
:1020A00096E00E944C0C8DE00E94400C8DE00E9456
:1020B000400C88E393E00E944C0C0E94440C082FD3
:1020C0000E94400C80ED800F8A30B8F78FEC800FB3
:1020D0008230E0F08EE193E00E944C0C8DE00E9493
:1020E000400C8DE00E94400C88E393E00E944C0C71
:1020F0000E94440C082F80ED800F8A30C8F7802F93
:102100000E94400C8FEC800F823020F7013309F0E1
:10211000D0C0AE01455E5F4F62E08EEA0E94870448
:102120008FE39CE90197F1F700C000008B8D8034AC
:1021300008F0A4C08DE00E94400C8DE00E94400C8D
:1021400087EA90E00E944C0C143088F40E94440C02
:10215000082F80ED800F8A30C8F7802F0E94400C36
:10216000F701E10FF11D00831F5F143079F78DE057
:102170000E94400C89EB90E00E944C0C8E010B5F9A
:102180001F4F680158010E94440C182F80ED810FE9
:102190008A30C8F7812F0E94400CF60111936F011D
:1021A0004E165F0681F785018DE00E94400CAE015E
:1021B000465E5F4F62E08EEA0E9487048FE39CE9EF
:1021C0000197F1F700C00000FE0131966F01B12CBC
:1021D000F60141916F016A8D660F660F6B0D86EAFD
:1021E0000E946A048FE39CE90197F1F700C00000A8
:1021F000F80141918F016A8D660F660F6B0D88EAB9
:102200000E946A048FE39CE90197F1F700C0000087
:10221000B39494E0B912DCCF4A8D4F5F4A8F62E0ED
:102220008EEA0E946A04EFE3FCE93197F1F700C0FF
:10223000000082E696E00E944C0C8DE00E94400C6B
:102240008DE00E94400C61E080E00E94BE0681E8C3
:1022500096E00E949F0662E081E00E94BE0680ED4B
:1022600095E00E949F06FFEF21EE84E0F1502040B0
:102270008040E1F700C0000010E0F4CC8CEE95E067
:102280000E944C0C8DE00E94400C8CE196E00E9474
:102290004C0C8DE00E94400C8DE00E94400C9FEFA2
:1022A000E9E6F8E19150E040F040E1F700C00000BD
:1022B000D9CCAE01455E5F4F63E08EEA0E94870491
:1022C0008FE39CE90197F1F700C000008B8D80340B
:1022D00008F093C08DE00E94400C8DE00E94400CFD
:1022E00087EA90E00E944C0C143088F40E94440C61
:1022F000082F80ED800F8A30C8F7802F0E94400C95
:10230000F701E10FF11D00831F5F143079F78DE0B5
:102310000E94400C89EB90E00E944C0C3E0195E03D
:10232000690E711C63010E94440C182F80ED810F0F
:102330008A30C8F7812F0E94400CF60111936F017B
:10234000E415F50581F78DE00E94400CAE01465E74
:102350005F4F63E08EEA0E9487048FE39CE9019758
:10236000F1F700C00000FE0131966F01B12C1B2D6A
:10237000F60141916F016A8D660F660F610F8AEA5F
:102380000E946A048FE39CE90197F1F700C0000006
:10239000F30141913F016A8D660F660F610F8CEA70
:1023A0000E946A048FE39CE90197F1F700C00000E6
:1023B0001F5F1430E9F64A8D4F5F4A8F63E08EEA63
:1023C0000E946A04EFE3FCE93197F1F700C00000D6
:1023D00082E696E00E944C0C8DE00E94400C8DE05D
:1023E0000E94400CFFEF29E688E1F1502040804038
:1023F000E1F700C0000010E035CC8CEE95E00E94C3
:102400004C0C8DE00E94400C8CE196E00E944C0C3C
:102410008DE00E94400C8DE00E94400C9FEFE9E6A9
:10242000F8E19150E040F040E1F700C000001ACC24
:10243000073309F0BCC28DE00E94400C8FE896E0A3
:102440000E944C0C8DE00E94400C80EB96E00E94B4
:102450004C0C8DE00E94400C8DE00E94400C88E303
:1024600093E00E944C0C0E94440C90ED980F9A301F
:10247000D0F7182F0E94400C8FEC810F8230E0F0D3
:102480008EE193E00E944C0C8DE00E94400C8DE0A8
:102490000E94400C88E393E00E944C0C0E94440C84
:1024A000182F80ED810F8A30C8F7812F0E94400CD1
:1024B0008FEC810F823020F78DE00E94400C8DE080
:1024C0000E94400C81ED96E00E944C0CCE010196DA
:1024D0006C010E94440C082F80ED800F8A30C8F7F1
:1024E000802F0E94400CF60101936F018C8D9D8D11
:1024F000E817F90771F78DE00E94400C88EF96E02D
:102500000E944C0C6E0195E0C90ED11C0E94440C37
:10251000082F80ED800F8A30C8F7802F0E94400C72
:10252000F60101936F01E415F50581F78DE00E9436
:10253000400C113309F01BC1AE01465E5F4F62E0F3
:102540008EEA0E9487048FE39CE90197F1F700C0AF
:1025500000008A8D8111E9C010E0F5C0A501602F4F
:1025600086EA0E948704EFE3FCE93197F1F700C0A7
:102570000000A601602F88EA0E9487048FE39CE98F
:102580000197F1F700C000000F5F9FEFA91AB90A89
:10259000EFEFCE1ADE0A0113E1CF44E0622D7E8D0B
:1025A0008F8D932D0E94A804813309F0B7C044E0B9
:1025B000BE01635F7F4F8DA19EA10E94A80481335D
:1025C00009F0ACC0182D882D90E02A8D30E0215004
:1025D0003109821793070CF06AC0880C880C912E81
:1025E0005AA249A2FCA2EBA2F32C312E47C0A601AD
:1025F000602F86EA0E9487048FE39CE90197F1F738
:1026000000C00000A501602F88EA0E948704EFE364
:10261000FCE93197F1F700C00000152D100FF6010D
:102620004081FFEFCF1ADF0A612F86EA0E946A0419
:102630008FE39CE90197F1F700C00000F5014081AC
:102640009FEFA91AB90A612F88EA0E946A04EFE392
:10265000FCE93197F1F700C000000F5FF8A10F13FC
:10266000C6CFF42C9394892D90E024E0820E2A8D1D
:1026700030E021503109821793079CF40196880FAE
:10268000880F6E0191E1C90ED11C5E01E5E1AE0E2D
:10269000B11CF4E0F80FF8A3082F582C581A4F2C4F
:1026A000A6CF132D49A05AA03F2CEBA0FCA08FE190
:1026B00097E00E944C0C8DE00E94400C00E06A8D77
:1026C000660F660F6450600F4FEF86EA0E946A043F
:1026D0008FE39CE90197F1F700C000006A8D660F57
:1026E000660F6450600F4FEF88EA0E946A04EFE3C0
:1026F000FCE93197F1F700C000000F5F0430F9F6F4
:102700004A8D41504A8F62E08EEA0E946A048FE34C
:102710009CE90197F1F700C0000056C18394012F96
:102720008A8D881628F0182D0EC000E010E0812E4A
:102730005E0199E0A90EB11C6E01EDE0CE0ED11C38
:1027400014E0100F0BCF91108DCA80E497E00E9427
:102750004C0C8DE00E94400C8EE697E00E944C0CE1
:102760008DE00E94400C8DE00E94400C7BCAAE01BF
:10277000465E5F4F63E08EEA0E9487048FE39CE928
:102780000197F1F700C000008A8D8111E9C010E0C7
:10279000F7C0A501602F8AEA0E948704EFE3FCE9F5
:1027A0003197F1F700C00000A601602F8CEA0E946B
:1027B00087048FE39CE90197F1F700C000000F5FE9
:1027C0009FEFA91AB90AEFEFCE1ADE0A0113E1CF83
:1027D00044E0622D772D862D932D0E94A80481332D
:1027E00009F0B7C044E0BE01635F7F4F8DA19EA199
:1027F0000E94A804813309F0ACC0182D882D90E008
:102800002A8D30E021503109821793070CF06AC0FD
:10281000880C880C912E5AA249A2FCA2EBA2F32CA0
:10282000312E47C0A601602F8AEA0E9487048FE3F9
:102830009CE90197F1F700C00000A501602F8CEA28
:102840000E948704EFE3FCE93197F1F700C0000034
:10285000152D100FF6014081FFEFCF1ADF0A612F0F
:102860008AEA0E946A048FE39CE90197F1F700C0AD
:102870000000F50140819FEFA91AB90A612F8CEA87
:102880000E946A04EFE3FCE93197F1F700C0000011
:102890000F5FF8A1F013C6CFF42C9394892D90E02C
:1028A00024E0820E2A8D30E02150310982179307EF
:1028B0009CF40196880F880F6E0191E1C90ED11C1E
:1028C0005E01E5E1AE0EB11CF4E0F80FF8A3082FAD
:1028D000582C581A4F2CA6CF132D49A05AA03F2C84
:1028E000EBA0FCA08FE197E00E944C0C8DE00E94D1
:1028F000400C00E06A8D660F660F6450600F4FEF6A
:102900008AEA0E946A048FE39CE90197F1F700C00C
:1029100000006A8D660F660F6450600F4FEF8CEAFF
:102920000E946A04EFE3FCE93197F1F700C0000070
:102930000F5F0430F9F64A8D41504A8F63E08EEA0A
:102940000E946A048FE39CE90197F1F700C0000040
:102950003BC08394012F8A8D881638F0182D10C043
:1029600000E010E0812E7E8C6F8C5E0199E0A90E54
:10297000B11C6E01EDE0CE0ED11C14E0100F09CF9A
:10298000911070C98DE00E94400C80E497E00E9495
:102990004C0C8DE00E94400C8EE697E00E944C0C9F
:1029A0008DE00E94400C8DE00E94400C5BC9083312
:1029B00009F058C98DE00E94400C8DE00E94400C47
:1029C0008DE00E94400C03C0992493944BC9A696B5
:1029D0000FB6F894DEBF0FBECDBFDF91CF911F9130
:1029E0000F91FF90EF90DF90CF90BF90AF909F90AE
:1029F0008F907F906F905F904F903F902F900895B1
:102A0000CF9388E094E00E944C0C8DE00E94400C33
:102A100083E394E00E944C0C8DE00E94400C8FE711
:102A200097E00E944C0C8DE00E94400C81E997E0F9
:102A30000E944C0C8DE00E94400C8DE00E94400CE6
:102A40008DEC91E00E944C0C0E94440CC82F0E9417
:102A5000400C8DE00E94400C8DE00E94400C80ED07
:102A60008C0F8A3088F71DC08CE997E00E944C0CCF
:102A70008DE00E94400C8DE00E94400C88E393E0C2
:102A80000E944C0C0E94440CC82F0E94400C8DE008
:102A90000E94400C8DE00E94400C80ED8C0F8A302B
:102AA00088F78FEC8C0F8430F8F6C13319F40E944C
:102AB000D30CA7CFC23309F066C086EE94E00E9423
:102AC0004C0C8DE00E94400C8DE00E94400C84E292
:102AD00095E00E944C0C8DE00E94400C89E395E04B
:102AE0000E944C0C8DE00E94400C81E495E00E9415
:102AF0004C0C8DE00E94400C89E495E00E944C0C47
:102B00008DE00E94400C81E595E00E944C0C8DE028
:102B10000E94400C88E393E00E944C0C0E94440CFD
:102B2000C82F0E94400C8DE00E94400C8DE00E9456
:102B3000400C80ED8C0F8A3088F71DC08AE695E046
:102B40000E944C0C8DE00E94400C8DE00E94400CD5
:102B500088E393E00E944C0C0E94440CC82F0E9412
:102B6000400C8DE00E94400C8DE00E94400C80EDF6
:102B70008C0F8A3088F780ED8C0F8530F8F68C2F1B
:102B80000E94C50A3ECFC33309F50E94010B8AEAB1
:102B900095E00E944C0C89E895E00E944C0C85EA77
:102BA00092E00E949F0680EC0E94110683EB92E067
:102BB0000E949F062FEF83ED90E3215080409040CC
:102BC000E1F700C000000E94CB061BCFC43309F020
:0A2BD00018CFCF910895F894FFCFBD
:102BDA003738392F3435362A3132332D43303D2BAD
:102BEA0050617373776F72643A200041636365734F
:102BFA0073204772616E7465640041636365737321
:102C0A002044656E69656400547269616C73204C76
:102C1A00656674203A2000456E74657220557365A6
:102C2A00726E616D65203A2000456E74657220509F
:102C3A00617373776F7264203A200057454C434F93
:102C4A004D4520424F53530057454C434F4D452065
:102C5A0041646D696E00547269616C73204C6566DB
:102C6A0074206265666F726520696E697469616C49
:102C7A00697A696E6720416C61726D203A2000574B
:102C8A00656C636F6D65205573657200526F6F6D69
:102C9A002031204C6564006973205475726E656436
:102CAA00206F6E006973205475726E6564204F66DA
:102CBA006600526F6F6D2032204C656400526F6F50
:102CCA006D2033204C656400526F6F6D2034204CA8
:102CDA00656400526F6F6D2035204C65640057653E
:102CEA006C636F6D6520746F20536D61727400435D
:102CFA00686F6F7365206120726F6F6D2000312ECF
:102D0A0020526F6F6D203100322E20526F6F6D206E
:102D1A003200332E20526F6F6D203300342E205232
:102D2A006F6F6D203400352E20526F6F6D20350085
:102D3A00362E20416C6C20526F6F6D7300596F757F
:102D4A00722043686F696365203A2000506C6561A0
:102D5A0073652043686F6F736500416C6C204C6526
:102D6A0064732061726520005475726E6564204F29
:102D7A004646005475726E204F4E203A2031005458
:102D8A0075726E204F4646203A203000312E436F2E
:102D9A006E74726F6C204C65647300322E44696DD8
:102DAA006D696E67204C616D7000332E436C6F73D2
:102DBA00652074686520446F6F7200342E4C6F670B
:102DCA006F757400546865204272696768746E652D
:102DDA0073730070657263656E74616765732061F1
:102DEA00726500302E2030202520284F46462900C3
:102DFA00312E20323520252000322E203530202554
:102E0A002000332E20373520252000342E20313063
:102E1A003020252000202054686520646F6F7220BE
:102E2A0069730020202020436C6F73656400576526
:102E3A006C636F6D6520746F20536D6172742048E6
:102E4A006F6D652053797374656D00506C6561739D
:102E5A00652063686F6F736520796F7572204D6F97
:102E6A006465202841646D696E2F55736572292047
:102E7A0000312E2041646D696E204D6F646520001B
:102E8A00322E2055736572204D6F64652000506C98
:102E9A00656173652043686F6F7365206F6E6C7927
:102EAA002031206F72203200596F75722063686F6B
:102EBA00696365203A2000312E20526F6F6D2031F0
:102ECA002000322E20526F6F6D20322000332E20C8
:102EDA00526F6F6D20332000342E20526F6F6D2099
:102EEA00342000352E20526F6F6D20352000362E8B
:102EFA0020416C6C20726F6F6D732000506C65619D
:102F0A0073652043686F6F7365206F6E6C792066F6
:102F1A00726F6D203120746F2036005475726E20E6
:102F2A004F6E203A2031005475726E204F6666202B
:102F3A003A203000506C656173652043686F6F7387
:102F4A00652031206F72203000416C6C204C656422
:102F5A007320617265205475726E6564204F6E002D
:102F6A00416C6C204C6564732061726520547572E3
:102F7A006E6564204F666600312E20436F6E747250
:102F8A006F6C6C696E67204C69676874696E67203C
:102F9A0028526F6F6D203120746F20526F6F6D2031
:102FAA00352900322E2044696D6D696E67206C6187
:102FBA006D7000332E204F70656E20746865204452
:102FCA006F6F7200342E20436C6F736520746865CE
:102FDA0020446F6F7200352E204164642061646D55
:102FEA00696E20746F207468652073797374656DD7
:102FFA0000362E20416464207573657220746F2038
:10300A007468652073797374656D00372E20526574
:10301A006D6F7665206120757365722066726F6DBB
:10302A00207468652073797374656D00382E204C9E
:10303A006F67206F757400506C6561736520436813
:10304A006F6F7365206F6E6C792066726F6D2031B9
:10305A0020746F203800506C656173652043686F77
:10306A006F7365206F6E65206F66207468652066D1
:10307A006F6C6C6F77696E67206272696768746ECD
:10308A006573732070657263656E7461676573201A
:10309A003A202000302E20302520285475726E20C8
:1030AA004F6666204C65642900312E203235252072
:1030BA0000322E203530252000332E2037352520AA
:1030CA0000342E20313030252020284D6178696D5A
:1030DA00756D20506F7765722900506C6561736554
:1030EA002043686F6F7365206F6E6C792066726F0C
:1030FA006D203020746F2034000D00546865206400
:10310A006F6F72206973206F70656E65640020208E
:10311A002020204F70656E65640054686520646FD6
:10312A006F7220697320636C6F73656400546865FD
:10313A002061646D696E206973206164646564202E
:10314A007375636365737366756C6C790041646D3E
:10315A00696E20697320616464656400536F7272DA
:10316A00792C20746865206D6178696D756D206EA3
:10317A00756D62657220666F722075736572732051
:10318A00697320363420757365727300546865203C
:10319A0073797374656D2063616E2774206164644A
:1031AA00206D6F726500312E2052656D6F74652037
:1031BA00557365722028554152542900322E204CED
:1031CA0043442026204B65797061642055736572EB
:1031DA0020005468652075736572206973206164E4
:1031EA00646564207375636365737366756C6C7963
:1031FA0000557365722069732061646465640031E7
:10320A002E2044656C65746520612072656D6F744B
:10321A006520285541525429205573657220200093
:10322A00322E2044656C65746520616E204C4344DF
:10323A002026204B657970616420557365722020C1
:10324A0000456E7465722055736572277320557335
:10325A0065726E616D6520746F2062652064656CAD
:10326A0065746564203A2000456E74657220557352
:10327A00657227732050617373776F726420746F5D
:10328A002062652064656C65746564203A20005488
:10329A00686520757365722069732064656C65744E
:1032AA006564207375636365737366756C6C790006
:1032BA0054686520656E746572656420557365721D
:1032CA006E616D6520262050617373776F7264207A
:1032DA00617265206E6F7420666F756E6400506C43
:1032EA00656173652054727920616761696E003384
:1032FA002E20436C6F73652074686520446F6F726B
:10330A0000342E204C6F67206F757400506C656115
:10331A0073652043686F6F7365206F6E6C792066E2
:0C332A00726F6D203120746F20340000A1
:00000001FF
