:100000000C942A000C9483000C9447000C94470035
:100010000C9447000C9447000C9447000C94470044
:100020000C9447000C9447000C9447000C94470034
:100030000C9447000C9447000C9447000C94470024
:100040000C9447000C9447000C9447000C94470014
:100050000C94470011241FBECFE5D8E0DEBFCDBF12
:1000600017E0A0E6B0E0ECEAFCE202C005900D92D9
:10007000A03CB107D9F727E0A0ECB7E001C01D9282
:10008000A03CB207E1F70E944F0B0C9454160C945D
:1000900000008B9A8C9A94980895979A98B384E06C
:1000A000892788BB08950E9474008B32910524F43F
:1000B00093989798C29808959C0129533109293142
:1000C000310520F4939A9798C29808958335910545
:1000D0001CF093980E944D000895379A3E9A97B16C
:1000E000892B87B9329A0895369A349BFECF85E3DF
:1000F0008A95F1F7000024B185B190E0982F882708
:10010000820F911D08951F920F920FB60F92112426
:100110005F926F927F928F929F92AF92BF92CF9297
:10012000DF92EF92FF920F931F932F933F934F9382
:100130005F936F937F938F939F93AF93BF93EF934F
:10014000FF93CF93DF93CDB7DEB76197DEBFCDBF0F
:1001500019820E94EB07AE014F5F5F4F63E08EEAAA
:100160000E9480048FE39CE90197F1F700C0000032
:100170006894992491F85E0196E0A90EB11C7A2C3E
:100180008B2C01C0982E66246394690C8DEA90E054
:100190000E9411078EE00E9483067E01E2E0EE0ECF
:1001A000F11C0E943606182F80ED810F8A30C8F7A7
:1001B000F70111937F01EA15FB0539F58CE00E94E8
:1001C0008306812F0E94E806FFEF25EA8EE0F150BA
:1001D00020408040E1F700C000009FEFE9E6F8E131
:1001E0009150E040F040E1F700C000000E943D0760
:1001F00080E790E00E9411078EE00E9483067E0156
:1002000026E0E20EF11C00E00DC0812F0E94E806FE
:100210008FEF95EAEEE081509040E040E1F700C0BA
:100220000000BFCF0E943606182F80ED810F8A3064
:10023000C8F7F70111937F01033001F58CE00E94AC
:100240008306812F0E94E806FFEF27E883E1F15043
:1002500020408040E1F700C000006DE080E00E9497
:1002600030078AE20E94E8069FEFE1EEF4E0915049
:10027000E040F040E1F700C0000021C0812F0E9463
:10028000E8062FEF87E893E1215080409040E1F7A6
:1002900000C000006AE0600F80E00E9430078AE240
:1002A0000E94E806EFEFF1EE24E0E150F04020403C
:1002B000E1F700C000000F5F043009F0B3CF8FEF0B
:1002C00099E6E8E181509040E040E1F700C000008D
:1002D0000E943D07898181114BC057C0A601612F43
:1002E0008AEA0E9480048FE39CE90197F1F700C03D
:1002F0000000A701612F8CEA0E948004EFE3FCE973
:100300003197F1F700C000001F5FFFEFCF1ADF0A3F
:100310002FEFE21AF20A1013E1CF44E0BE01665F4C
:100320007F4FCE0102960E9405058133D9F444E047
:10033000BE01625F7F4F872D982D0E940505813396
:1003400089F48BE790E00E9411078FEF99E6E8E1CE
:1003500081509040E040E1F700C000000E943D075E
:10036000962C32C05394102F8981581618F00DC066
:1003700010E0512C6E01FAE0CF0ED11C7E012EE070
:10038000E20EF11C04E0010FA9CF8AE890E00E9480
:10039000110780EC0E94830688E990E00E94110713
:1003A00080E3890D0E94E8068FEF99E6E8E181502D
:1003B0009040E040E1F700C000000E943D078FEF51
:1003C000890D833008F4DECE911002C00E94100B1C
:1003D0000E949C09FFEF20E782E0F150204080401E
:1003E000E1F700C0000061960FB6F894DEBF0FBEC3
:1003F000CDBFDF91CF91FF91EF91BF91AF919F91D1
:100400008F917F916F915F914F913F912F911F91AC
:100410000F91FF90EF90DF90CF90BF90AF909F90A3
:100420008F907F906F905F900F900FBE0F901F90F6
:1004300018950E94AC060E94250687E690E00E946F
:10044000A00C0E945C0B0E94DD0A0E942F0B0E94F0
:10045000DB0A83E090E00E946D000E945A0B0E942C
:1004600049000E9419060E94600408952F923F924D
:100470004F925F926F927F928F929F92AF92BF92B4
:10048000CF92DF92EF92FF920F931F93CF93DF9360
:10049000CDB7DEB763970FB6F894DEBF0FBECDBF02
:1004A00019821A820E94E80C813309F00DC1AE0155
:1004B0004F5F5F4F61E08EEA0E9480048FE39CE90A
:1004C0000197F1F700C000006894772471F84E019D
:1004D00097E0890E911C5E01EBE0AE0EB11C01C0ED
:1004E000782E66246394670C87EA90E00E94BE0C25
:1004F0007E01F3E0EF0EF11C0E94B60C182F0E9453
:10050000B20C80ED810F8A30B8F7F70111937F01AB
:100510008E169F0689F78DE00E94B20C89EB90E061
:100520000E94BE0C7E01F7E0EF0EF11C0E94B60C9B
:10053000182F0E94B20C80ED810F8A30B8F7F701B6
:1005400011937F01EA15FB0589F78DE00E94B20C3B
:1005500024E0A50160E080EA0E94D1048FE39CE9D9
:100560000197F1F700C0000024E0AE01415F5F4F4A
:1005700068E080EA0E94D104EFE3FCE93197F1F7EB
:1005800000C0000044E0B501CE0103960E940505BD
:10059000813321F08981811166C072C044E0BE01BF
:1005A000615F7F4FC4010E940505813399F78DE09B
:1005B0000E94B20C8DE00E94B20C8BEC90E00E9485
:1005C000BE0C8DE00E94B20C8DE00E94B20C5DC1A9
:1005D000A601612F82EA0E9480048FE39CE90197C3
:1005E000F1F700C00000A701612F84EA0E94800497
:1005F000EFE3FCE93197F1F700C000001F5FFFEF68
:10060000CF1ADF0A8FEFE81AF80A0113E1CF44E0AE
:10061000B501CE0103960E9405058133F1F444E053
:10062000BE01615F7F4FC4010E9405058133A9F4BB
:100630008BE790E00E94BE0C8DE00E94B20C8DE032
:100640000E94B20C88ED90E00E94BE0C8DE00E94EA
:10065000B20C8DE00E94B20C18C15394102F898106
:10066000581618F00DC010E0512C6E019BE0C90E19
:10067000D11C7E01EFE0EE0EF11C04E0010FA8CFCB
:100680008AE890E00E94BE0C8DE00E94B20C86EEDB
:1006900090E00E94BE0C80E3870D0E94B20C8DE0BA
:1006A0000E94B20C8DE00E94B20C8DE00E94B20C50
:1006B0008FEF870D833008F413CF711002C00E94B2
:1006C000100B0E94720EE3C0AE014E5F5F4F62E0FE
:1006D0008EEA0E9480048FE39CE90197F1F700C045
:1006E00000006894772471F85E0197E0A90EB11CB0
:1006F0004E01EBE08E0E911CC82CD92C6A2C5B2C81
:1007000001C0782EF1E0F70DFB8B87EA90E00E94A4
:10071000BE0C7E0183E0E80EF11C0E94B60C182F7F
:100720000E94B20C80ED810F8A30B8F7F701119367
:100730007F01AE16BF0689F78DE00E94B20C89EBEF
:1007400090E00E94BE0C7E01F7E0EF0EF11C0E94CB
:10075000B60C182F0E94B20C80ED810F8A30B8F7CA
:10076000F70111937F01E815F90589F78DE00E94E3
:10077000B20C8DE00E94B20C8DE00E94B20C8A8116
:10078000811151C05EC0A701642D86EA0E948004D9
:100790008FE39CE90197F1F700C00000A801642DE8
:1007A00088EA0E948004EFE3FCE93197F1F700C08A
:1007B00000004394FFEFEF1AFF0A0F5F1F4F341042
:1007C000E2CF44E06C2D7D2DCE0103960E940505FD
:1007D000813319F544E0BE01615F7F4F862D952D71
:1007E0000E9405058133C9F48BE790E00E94BE0C9E
:1007F0008DE00E94B20C8DE00E94B20C8FE091E07F
:100800000E94BE0C8DE00E94B20C8DE00E94B20CE2
:100810008DE00E94B20C7B8831C02394432C8A81E6
:10082000281618F00EC0412C212C7E018BE0E80E1A
:10083000F11C8E01015F1F4F6894332432F8340C91
:10084000A2CF8AE890E00E94BE0C8DE00E94B20C1C
:1008500086EE90E00E94BE0C80E3870D0E94B20CF1
:100860008DE00E94B20C8DE00E94B20C8DE00E94DF
:10087000B20C8FEF870D833008F443CF711002C0A4
:100880000E94100B0E94691502C0762C16CF639649
:100890000FB6F894DEBF0FBECDBFDF91CF911F9191
:1008A0000F91FF90EF90DF90CF90BF90AF909F900F
:1008B0008F907F906F905F904F903F902F90089512
:1008C0000E94B1050895CF93DF93D62FC42F0E94C5
:1008D000B5058D2F0E94EF058FE39CE90197F1F795
:1008E00000C000008C2F0E94EF058FE39CE9019768
:1008F000F1F700C000000E941306DF91CF91089528
:100900000F931F93CF93DF93C82FD62F8A010E9496
:10091000B5058D2F0E94EF0581E08C0F0E94D20556
:100920000E940806F80180838FE39CE90197F1F7A4
:1009300000C000000E941306DF91CF911F910F911C
:1009400008950F931F93CF93DF93162FEA01022F81
:10095000213108F000E10E94B505812F0E94EF05CA
:100960008FE39CE90197F1F700C00000002361F0DC
:10097000015010E00F5F1F4F0C0F1D1F89910E9447
:10098000EF05C017D107D1F78FE39CE90197F1F785
:1009900000C000000E941306DF91CF911F910F91BC
:1009A0000895FF920F931F93CF93DF93182FF62E86
:1009B000EA01022F0E94B5058F2D0E94EF0581E00C
:1009C000810F0E94D205002391F0015010E00F5FCB
:1009D0001F4F0C0F1D1F0E94010689938FE39CE996
:1009E0000197F1F700C00000C017D107A1F78FE30E
:1009F0009CE90197F1F700C000000E941306DF9107
:100A0000CF911F910F91FF9008954423D1F0FC01E5
:100A10003081FB012081321316C0FC013196DB01CD
:100A20001196415050E04F5F5F4F480F591F04C06F
:100A300021919D91291309C0E417F507C9F781E3B6
:100A4000089581E3089580E3089580E3089524E004
:100A50004CE151E060E080EA0E94A1042FEF83ECBA
:100A600099E0215080409040E1F700C0000024E070
:100A70004CE151E068E080EA0E94A1042FEF83EC92
:100A800099E0215080409040E1F700C000000895B7
:100A9000CF93DF9300D01F92CDB7DEB719821A82B1
:100AA0001B82AE014F5F5F4F61E08EEA0E948004BF
:100AB0008FE39CE90197F1F700C00000AE014E5FA3
:100AC0005F4F62E08EEA0E9480048FE39CE9019709
:100AD000F1F700C00000AE014D5F5F4F63E08EEAAA
:100AE0000E9480048FE39CE90197F1F700C00000A9
:100AF00089818F3F71F440E061E08EEA0E946304D7
:100B00009FEF23EC89E0915020408040E1F700C046
:100B100000008A818F3F71F440E062E08EEA0E941B
:100B200063049FEF23EC89E0915020408040E1F77F
:100B300000C000008B818F3F71F440E063E08EEADB
:100B40000E9463049FEF23EC89E091502040804095
:100B5000E1F700C000000F900F900F90DF91CF9150
:100B6000089511B88FEF80B9089594EA96BF06B63C
:100B700007FEFDCF91B1987F983071F483B984E876
:100B800086BF06B607FEFDCF81B1887F883131F080
:100B9000803231F083E0089580E0089581E0089587
:100BA00082E0089594EA96BF06B607FEFDCF91B1A4
:100BB000987F903171F483B984E886BF06B607FE4A
:100BC000FDCF81B1887F803431F0883431F083E00B
:100BD000089580E0089581E0089582E0089583B942
:100BE00084E886BF06B607FEFDCF81B1887F8832D4
:100BF00021F0803321F082E0089580E0089581E0C3
:100C0000089584EC86BF06B607FEFDCF83B1089534
:100C100086B7846086BF86B7806886BF06B607FE43
:100C2000FDCF83B1089584E986BF06B604FCFDCFED
:100C300008958A988BB780648BBF85B78D7F85BFF9
:100C400085B78E7F85BF78940895A498A598A698B7
:100C5000A798AC9AAD9AAE9AAF9ABC9ABD9ABE9A32
:100C6000BF9AC49AC59AC69AC79A08950F931F93BC
:100C7000CF93DF93C4E0D0E080E0A1E0B0E098B390
:100C80008D010C2E02C0000F111F0A94E2F7202FD5
:100C90002095922398BBFE01E45AFF4F64E070E078
:100CA00023B3962FAD01062E02C0440F551F0A94A0
:100CB000E2F730E024233523062E02C03595279530
:100CC0000A94E2F7232B69F4808123B330E02423D4
:100CD0003523092E02C0359527950A94E2F7232B78
:100CE000A1F36F5F7F4F349668307105C9F698B3F2
:100CF000092B08BB2196C830D10509F6DF91CF91A9
:100D00001F910F9108959BB39F70282F207F922BE6
:100D10009BBBD898D998DA9A35E03A95F1F700005C
:100D2000DA98EFE1F3E03197F1F700C000002BB360
:100D30002F70F0E18F9FC0011124822B8BBBDA9AB8
:100D400035E03A95F1F70000DA988FE39FE10197DB
:100D5000F1F700C000000895D09AD19AD29AD8989D
:100D6000D998DA98D49AD59AD69AD79ADC98DD98F9
:100D7000DE98DF9882E00E9483068FE99FE001976A
:100D8000F1F700C0000088E20E9483068FE99FE02F
:100D90000197F1F700C0000081E00E9483068FE90F
:100DA0009FE00197F1F700C000008CE00E948306ED
:100DB0008FE99FE00197F1F700C0000086E00E94F4
:100DC00083068FE99FE00197F1F700C000000895C6
:100DD0009BB39F70282F207F922B9BBBD89AD998CA
:100DE000DA9A35E03A95F1F70000DA98EFE1F3E0AE
:100DF0003197F1F700C000002BB32F70F0E18F9F07
:100E0000C0011124822B8BBBDA9A35E03A95F1F7B9
:100E10000000DA988FE39FE10197F1F700C000002E
:100E200008950F931F93CF93FC0180818823A1F035
:100E30008F01C0E00E94E8062FEF80E792E021508A
:100E400080409040E1F700C00000CF5FF801EC0F58
:100E5000F11D80818111EECFCF911F910F910895E7
:100E6000823050F4603140F490E4899F600D112489
:100E7000862F80680E948306089581E00E94830681
:100E80000895833309F447C028F4813351F0823345
:100E900029F195C0843309F45BC0853309F474C02B
:100EA0008EC0603379F0613309F089C081E291E04E
:100EB0000E94110780EC0E9483068CE291E00E9460
:100EC00011077DC081E291E00E94110780EC0E9431
:100ED000830689E391E00E94110771C0603379F0C5
:100EE000613309F06CC087E491E00E94110780EC47
:100EF0000E9483068CE291E00E94110760C087E4A3
:100F000091E00E94110780EC0E94830689E391E042
:100F10000E94110754C0603379F0613309F04FC06B
:100F200082E591E00E94110780EC0E9483068CE22A
:100F300091E00E94110743C082E591E00E941107F1
:100F400080EC0E94830689E391E00E94110737C07C
:100F5000603371F0613399F58DE591E00E941107DE
:100F600080EC0E9483068CE291E00E94110727C06A
:100F70008DE591E00E94110780EC0E94830689E3D1
:100F800091E00E9411071BC0603371F06133B9F426
:100F900088E691E00E94110780EC0E9483068CE2B3
:100FA00091E00E9411070BC088E691E00E941107B2
:100FB00080EC0E94830689E391E00E9411072FEFE5
:100FC00083ED90E3215080409040E1F700C00000A5
:100FD0000E943D07089583E791E00E94110780EC8D
:100FE0000E94830684ED92E00E9411072FEF83EDAB
:100FF00090E3215080409040E1F700C000000E9443
:101000003D0708951F93CF93DF9384E891E00E94FA
:1010100011072FEF83ED90E3215080409040E1F7DE
:1010200000C000000E943D0783E991E00E94110783
:1010300080EC0E9483068DE991E00E9411072FEF5A
:1010400089E698E1215080409040E1F700C000001F
:101050000E943D0787EA91E00E94110780EC0E9400
:10106000830681EB91E00E9411072FEF89E698E15A
:10107000215080409040E1F700C000000E943D07F1
:101080008BEB91E00E94110780EC0E94830685ECB7
:1010900091E00E9411072FEF89E698E121508040EE
:1010A0009040E1F700C000000E943D0782ED91E012
:1010B0000E9411078FE00E9483060E943606C82F07
:1010C00080ED8C0F8A30C8F78C2F0E94E8062FEF36
:1010D00089E698E1215080409040E1F700C000008F
:1010E0000E943D078FEC8C0F863008F4DAC081EE49
:1010F00091E00E94110780EC0E94830684EA93E04D
:101100000E9411072FEF83ED90E321508040904023
:10111000E1F700C000000E943D070E943606C82F7C
:1011200080ED8C0F8A30C8F78C2F0E94E8062FEFD5
:1011300089E698E1215080409040E1F700C000002E
:101140000E943D078FEC8C0F863088F6AAC00E9463
:101150003606D82F10ED180F1A30C8F70E94E8068F
:101160002FEF83ED90E3215080409040E1F700C0E5
:1011700000000E943D07123080F181EE91E00E9454
:10118000110780EC0E94830663E081E00E94300733
:1011900087ED93E00E9411072FEF83ED90E321503C
:1011A00080409040E1F700C000000E943D070E948F
:1011B0003606D82F10ED180F1A30C8F70E94E8062F
:1011C0002FEF89E698E1215080409040E1F700C080
:1011D00000000E943D07123080F6C63309F058C067
:1011E000D13359F561E381E30E94E40A62E381E3CC
:1011F0000E94E40A63E381E30E94E40A64E381E37A
:101200000E94E40A65E381E30E94E40A8FEE91E024
:101210000E94110780EC0E9483068BEE93E00E94EF
:1012200011072FEF83ED90E3215080409040E1F7CC
:1012300000C000000E943D074EC061E380E30E94B1
:10124000E40A62E380E30E94E40A63E380E30E942D
:10125000E40A64E380E30E94E40A65E380E30E9419
:10126000E40A8FEE91E00E94110780EC0E94830651
:101270008DEF91E00E9411072FEF83ED90E3215055
:1012800080409040E1F700C000000E943D0723C06D
:101290006C2F8D2F0E94E40A6D2F8C2F0E94410726
:1012A0001AC08CE00E94830688E092E00E94110739
:1012B00080EC0E94830684E192E00E9411072FEFE8
:1012C00087EA91E6215080409040E1F700C000009D
:1012D0000E943D073CCFDF91CF911F91089581E29D
:1012E00092E00E94110780EC0E94830680E392E066
:1012F0000E9411072FEF89E698E12150804090402D
:10130000E1F700C000000E943D078FE392E00E94D9
:10131000110780EC0E94830680E592E00E9411078D
:101320002FEF89E698E1215080409040E1F700C01E
:1013300000000E943D070895CF93DF930E946F093C
:1013400082ED91E00E9411078FE00E9483060E94C7
:101350003606C82F80ED8C0F8A30C8F78C2F0E947C
:10136000E8062FEF89E698E1215080409040E1F7B0
:1013700000C000000E943D078FEC8C0F8430D8F134
:101380008EE00E94830681EE91E00E94110780ECBE
:101390000E94830684EB97E00E9411072FEF83EDF4
:1013A00090E3215080409040E1F700C000000E948F
:1013B0003D070E946F0982ED91E00E9411078FE0C6
:1013C0000E9483060E943606C82F80ED8C0F8A305B
:1013D000C8F78C2F0E94E8062FEF89E698E121508C
:1013E00080409040E1F700C000000E943D078FEC74
:1013F0008C0F843028F68CE00E948306C13319F4E8
:101400000E9402089BCFC23309F0B4C089E592E084
:101410000E94110780EC0E94830688E692E00E94F9
:1014200011072FEF89E698E1215080409040E1F7C5
:1014300000C000000E943D0788E792E00E9411076B
:1014400080EC0E94830685E892E00E9411072FEF4E
:1014500089E698E1215080409040E1F700C000000B
:101460000E943D078EE892E00E94110780EC0E94E6
:10147000830687E992E00E9411072FEF89E698E141
:10148000215080409040E1F700C000000E943D07DD
:1014900080EA92E00E94110780EC0E9483068FE5AB
:1014A00095E00E9411072FEF89E698E121508040D6
:1014B0009040E1F700C000000E943D0782ED91E0FE
:1014C0000E9411078FE00E9483060E943606C82FF3
:1014D000D0EDD80FDA30C8F70E94E8062FEF89E682
:1014E00098E1215080409040E1F700C000000E9448
:1014F0003D07D530C0F18EE00E94830681EE91E079
:101500000E94110780EC0E94830682E895E00E9409
:1015100011072FEF83ED90E3215080409040E1F7D9
:1015200000C000000E943D070E946F0982ED91E01B
:101530000E9411078FE00E9483060E943606C82F82
:10154000D0EDD80FDA30C8F70E94E8062FEF89E611
:1015500098E1215080409040E1F700C000000E94D7
:101560003D07D53040F68CE00E9483068C2F0E9408
:10157000370BE4CEC333C9F40E94730B8AEA92E0BE
:101580000E94110780EC0E94830688EB92E00E9483
:1015900011072FEF83ED90E3215080409040E1F759
:1015A00000C000000E943D07C9CEC43309F0C6CE7A
:1015B000DF91CF9108958F9A0895B89AB99AA29A17
:1015C000A39A8E9ABA9A08958133A1F4613311F4E3
:1015D000C09A0895623311F4C19A0895633311F4E7
:1015E000AA9A0895643311F4AB9A08956533B9F457
:1015F000969A0895803399F4613311F4C098089550
:10160000623311F4C1980895633311F4AA980895D0
:10161000643311F4AB980895653309F496980895EE
:1016200051E042E034E028E090E4979A88B38527BF
:1016300088BB88B3842788BB85B3832785BB85B3E4
:10164000822785BB82B3892782BB6FEF79E688E169
:10165000615070408040E1F700C00000E6CFBB9AC7
:1016600022E342E361E380E00E94780B0895803337
:1016700011F41CBE0895813319F48FE38CBF0895D3
:10168000823319F48FE78CBF0895833319F48FEBFD
:101690008CBF0895843311F48FEF8CBF08950E949E
:1016A00019020E9427050E9448050E94D40C0E943E
:1016B0003602FDCFD39808958D9A22E342E362E388
:1016C00081E00E94780B8FE39CE997BD86BD1DBC2D
:1016D0001CBC87EB9BE09BBD8ABD089582E894E12A
:1016E0009BBD8ABD089587EB9BE09BBD8ABD089595
:1016F000811186C0203351F483B78E7F83BF83B7B7
:101700008D7F83BF83B78B7F83BF3BC0213351F471
:1017100083B7816083BF83B78D7F83BF83B78B7FA0
:1017200083BF2FC0223351F483B78E7F83BF83B72B
:10173000826083BF83B78B7F83BF23C0233351F481
:1017400083B7816083BF83B7826083BF83B78B7F9A
:1017500083BF17C0243351F483B78E7F83BF83B711
:101760008D7F83BF83B7846083BF0BC0253349F46B
:1017700083B7816083BF83B78D7F83BF83B7846066
:1017800083BF603339F483B7877F83BF83B78F7B91
:1017900083BF11C0623339F483B7886083BF83B7D6
:1017A000806483BF08C0613331F483B7877F83BF10
:1017B00083B7806483BF403339F483B78F7E83BFA0
:1017C00083B78F7D83BF0895413339F483B78F7D0D
:1017D00083BF83B7806183BF0895423339F483B7F1
:1017E0008F7E83BF83B7806283BF0895433309F040
:1017F000A0C083B7806183BF83B7806283BF089531
:10180000813009F096C0203351F48EB58E7F8EBDA5
:101810008EB58D7F8EBD8EB58B7F8EBD3BC0213347
:1018200051F48EB581608EBD8EB58D7F8EBD8EB527
:101830008B7F8EBD2FC0223351F48EB58E7F8EBD2F
:101840008EB582608EBD8EB58B7F8EBD23C0233357
:1018500051F48EB581608EBD8EB582608EBD8EB521
:101860008B7F8EBD17C0243351F48EB58E7F8EBD15
:101870008EB58D7F8EBD8EB584608EBD0BC0253339
:1018800049F48EB581608EBD8EB58D7F8EBD8EB5CF
:1018900084608EBD603369F48FB58E7F8FBD8FB548
:1018A0008D7F8FBD8EB5877F8EBD8EB58F7E8EBDB1
:1018B0001DC0623369F48FB58E7F8FBD8FB5826096
:1018C0008FBD8EB588608EBD8EB580618EBD0EC019
:1018D000613361F48FB58E7F8FBD8FB582608FBD10
:1018E0008EB5877F8EBD8EB580618EBD403339F455
:1018F0008FB58F7B8FBD8FB58F778FBD08954133A7
:1019000039F48FB580648FBD8FB58F778FBD089503
:10191000423339F48FB58F7B8FBD8FB580688FBD13
:101920000895433331F48FB580648FBD8FB58068DF
:101930008FBD089580B5886080BD0895569808953C
:1019400090BD89B90E949E0C539A549A80B58068C4
:1019500080BD0E949A0C80B5826080BD80B5846095
:1019600080BD08955D9BFECF8CB908955F9904C03A
:101970000E9453005F9BFCCF8CB108950F931F937F
:10198000CF93FC018081882359F08F01C0E00E9431
:10199000B20CCF5FF801EC0FF11D80818111F7CF00
:1019A000CF911F910F91089583EC92E00E94BE0C9D
:1019B0008DE00E94B20C8DE00E94B20C2FEF85EA00
:1019C0009EE0215080409040E1F700C00000089563
:1019D000CF9380EE92E00E94BE0C8DE00E94B20C8C
:1019E00086E093E00E94BE0C8DE00E94B20C85E17F
:1019F00093E00E94BE0C8DE00E94B20C8DE00E942C
:101A0000B20C2FEF85EA9EE0215080409040E1F734
:101A100000C0000082ED91E00E94BE0C0E94B60C56
:101A2000C82F0E94B20C80ED8C0F8A30B8F78DE081
:101A30000E94B20C8DE00E94B20C8FEC8C0F8230B1
:101A400008F183E293E00E94BE0C8DE00E94B20C8C
:101A50008DE00E94B20C8DE393E00E94BE0C0E94C8
:101A6000B60CC82F0E94B20C80ED8C0F8A30B8F7EC
:101A70008DE00E94B20C8DE00E94B20C8FEC8C0FB6
:101A80008230F8F68C2FCF910895CF93DF938CE4BA
:101A900093E00E94BE0C8DE00E94B20C87E593E0BB
:101AA0000E94BE0C8DE00E94B20C82E693E00E9480
:101AB000BE0C8DE00E94B20C8DE693E00E94BE0C3D
:101AC0008DE00E94B20C88E793E00E94BE0C8DE08E
:101AD0000E94B20C83E893E00E94BE0C8DE00E944D
:101AE000B20C8DE00E94B20C8DE393E00E94BE0C1C
:101AF0000E94B60CC82F0E94B20C8DE00E94B20C5E
:101B00008DE00E94B20C80ED8C0F8A3088F71DC0EA
:101B100081E993E00E94BE0C8DE00E94B20C8DE042
:101B20000E94B20C8DE393E00E94BE0C0E94B60CA2
:101B3000C82F0E94B20C8DE00E94B20C8DE00E9472
:101B4000B20C80ED8C0F8A3088F78FEC8C0F8630CA
:101B5000F8F680EB93E00E94BE0C8DE00E94B20C80
:101B60008CEB93E00E94BE0C8DE00E94B20C8DE0E5
:101B70000E94B20C82ED91E00E94BE0C0E94B60C55
:101B8000D82F0E94B20C8DE00E94B20C8DE00E9412
:101B9000B20C80ED8D0F8A3088F71DC089EC93E080
:101BA0000E94BE0C8DE00E94B20C8DE00E94B20C2F
:101BB0008DE393E00E94BE0C0E94B60CD82F0E94C9
:101BC000B20C8DE00E94B20C8DE00E94B20C80ED50
:101BD0008D0F8A3088F780ED8D0F8230F8F6C6338E
:101BE00009F06CC0D133A9F561E381E30E94E40AF6
:101BF00062E381E30E94E40A63E381E30E94E40A72
:101C000064E381E30E94E40A65E381E30E94E40A5D
:101C10008EED93E00E94BE0C8DE00E94B20C8DE030
:101C20000E94B20C8FEE91E00E94110780EC0E949E
:101C300083068BEE93E00E9411072FEF83ED90E374
:101C4000215080409040E1F700C000000E943D0715
:101C50003DC061E380E30E94E40A62E380E30E9406
:101C6000E40A63E380E30E94E40A64E380E30E9401
:101C7000E40A65E380E30E94E40A85EF93E00E94B2
:101C8000BE0C8DE00E94B20C8DE00E94B20C8FEE73
:101C900091E00E94110780EC0E94830682E094E0AC
:101CA0000E9411072FEF83ED90E321508040904078
:101CB000E1F700C000000E943D0708C06C2F8D2F87
:101CC0000E94E40A6D2F8C2F0E9441078DE00E9434
:101CD000B20C8DE00E94B20C8DE00E94B20CDF913C
:101CE000CF9108952F923F924F925F926F927F9281
:101CF0008F929F92AF92BF92CF92DF92EF92FF921C
:101D00000F931F93CF93DF93CDB7DEB7A0970FB696
:101D1000F894DEBF0FBECDBF198E1A8E1B8E1C8E9F
:101D2000712C4E0125E0820E911C5E0189E0A80E07
:101D3000B11CFE0131966F014A2CBD8E6E2E5D2CBA
:101D40008E8E9F8E8DE094E00E94BE0C8DE00E94EE
:101D5000B20C88E394E00E94BE0C8DE00E94B20CAD
:101D600088E494E00E94BE0C8DE00E94B20C89E5EC
:101D700094E00E94BE0C8DE00E94B20C8BE694E0D1
:101D80000E94BE0C8DE00E94B20C86E894E00E9496
:101D9000BE0C8DE00E94B20C80EA94E00E94BE0C62
:101DA0008DE00E94B20C81EC94E00E94BE0C8DE0AC
:101DB0000E94B20C8DE00E94B20C82ED91E00E9474
:101DC000BE0C0E94B60C182F80ED810F8A30C8F728
:101DD000812F0E94B20C8FEC810F883008F18CECBF
:101DE00094E00E94BE0C8DE00E94B20C8DE00E9437
:101DF000B20C8DE393E00E94BE0C0E94B60C182F2B
:101E00000E94B20C80ED810F8A30B8F78DE00E94FD
:101E1000B20C8DE00E94B20C8FEC810F8830F8F686
:101E2000113319F40E94450D8DCF123309F06CC0A7
:101E30008DE00E94B20C8DE00E94B20C8BEE94E01B
:101E40000E94BE0C8DE00E94B20C8DE00E94B20C8C
:101E500089E295E00E94BE0C8DE00E94B20C8EE3F8
:101E600095E00E94BE0C8DE00E94B20C86E495E0E5
:101E70000E94BE0C8DE00E94B20C8EE495E00E94A0
:101E8000BE0C8DE00E94B20C86E595E00E94BE0C6F
:101E90008DE00E94B20C8DE393E00E94BE0C0E9484
:101EA000B60C182F0E94B20C8DE00E94B20C8DE08F
:101EB0000E94B20C80ED810F8A3088F71DC08FE63A
:101EC00095E00E94BE0C8DE00E94B20C8DE00E9455
:101ED000B20C8DE393E00E94BE0C0E94B60C182F4A
:101EE0000E94B20C8DE00E94B20C8DE00E94B20CF8
:101EF00080ED810F8A3088F780ED810F8530F8F60C
:101F0000812F0E94370B1ECF133359F50E946E0BA1
:101F10008EE895E00E94BE0C8DE00E94B20C80E934
:101F200095E00E94BE0C8EE895E00E94BE0C8DE00C
:101F30000E94B20C8AEA92E00E94110780EC0E9493
:101F4000830683EA95E00E941107FFEF29E688E106
:101F5000F15020408040E1F700C000000E943D07A2
:101F6000F1CE143359F50E94730B8EE895E00E9470
:101F7000BE0C8DE00E94B20C8FEA95E00E94BE0C70
:101F80008EE895E00E94BE0C8DE00E94B20C8AEAB9
:101F900092E00E94110780EC0E94830688EB92E099
:101FA0000E9411079FEFE9E6F8E19150E040F04010
:101FB000E1F700C000000E943D07C4CE153309F0D0
:101FC000CFC0AE01455E5F4F61E08EEA0E948004A3
:101FD0008FE39CE90197F1F700C000008B8D8034FE
:101FE00008F0A3C08DE00E94B20C8DE00E94B20CFC
:101FF00087EA90E00E94BE0C93E0971590F00E9453
:10200000B60C182F80ED810F8A30C8F7812F0E94FF
:10201000B20CF601E70DF11D10837394E4E07E121B
:10202000EECF8DE00E94B20C89EB90E00E94BE0CD6
:102030007E01F5E0EF0EF11C0E94B60C182F80ED2A
:10204000810F8A30C8F7812F0E94B20CF7011193DB
:102050007F01EA15FB0581F78DE00E94B20CAE010D
:10206000475E5F4F61E08EEA0E9480048FE39CE947
:102070000197F1F700C00000698D660F660F24E03C
:10208000462D552D82EA0E94A1049FEFE3ECF9E072
:102090009150E040F040E1F700C00000698D660F0C
:1020A000660F24E04E8D5F8D84EA0E94A1042FEF1D
:1020B00083EC99E0215080409040E1F700C000009F
:1020C000498D4F5F498F61E08EEA0E946304EFEF14
:1020D000F3EC29E0E150F0402040E1F700C00000BF
:1020E00082EC95E00E94BE0C8DE00E94B20C8DE067
:1020F0000E94B20C61E080E00E94300782EE95E021
:102100000E94110762E081E00E94300785ED95E0B2
:102110000E9411078FEF99E6E8E181509040E0407E
:10212000E1F700C00000712C0DCE81EF95E00E9418
:10213000BE0C8DE00E94B20C81E296E00E94BE0CC3
:102140008DE00E94B20C8DE00E94B20CFFEF29E6F8
:1021500088E1F15020408040E1F700C00000F2CD5E
:10216000163309F0D1C18DE00E94B20C8DE00E94BF
:10217000B20C8BE396E00E94BE0C8DE00E94B20C84
:1021800081E596E00E94BE0C8DE00E94B20C8DE0CD
:102190000E94B20C8DE393E00E94BE0C0E94B60C2C
:1021A000182F0E94B20C80ED810F8A30B8F78FECA7
:1021B000810F8230E0F083E293E00E94BE0C8DE05C
:1021C0000E94B20C8DE00E94B20C8DE393E00E945D
:1021D000BE0C0E94B60C182F80ED810F8A30C8F714
:1021E000812F0E94B20C8FEC810F823020F71133C7
:1021F00009F0CEC0AE01455E5F4F62E08EEA0E94FC
:102200008004EFE3FCE93197F1F700C000008B8D0B
:10221000803408F0A2C08DE00E94B20C8DE00E94D4
:10222000B20C87EA90E00E94BE0CF3E0F71590F044
:102230000E94B60C182F80ED810F8A30C8F7812FCD
:102240000E94B20CF601E70DF11D1083739424E097
:102250007212EECF8DE00E94B20C89EB90E00E94EA
:10226000BE0C8E010B5F1F4F0E94B60CF82E80ED46
:102270008F0D8A30C8F78F2D0E94B20CF801F192B1
:102280008F01EA15FB0581F78DE00E94B20CAE01CB
:10229000465E5F4F62E08EEA0E9480048FE39CE915
:1022A0000197F1F700C000006A8D660F660F24E009
:1022B000462D552D86EA0E94A1049FEFE3ECF9E03C
:1022C0009150E040F040E1F700C000006A8D660FD9
:1022D000660F24E04E8D5F8D88EA0E94A1042FEFE7
:1022E00083EC99E0215080409040E1F700C000006D
:1022F0004A8D4F5F4A8F62E08EEA0E946304EFEFDF
:10230000F3EC29E0E150F0402040E1F700C000008C
:1023100087E696E00E94BE0C8DE00E94B20C8DE034
:102320000E94B20C61E080E00E94300786E896E0EF
:102330000E94110762E081E00E94300785ED95E080
:102340000E9411078FEF91EEE4E081509040E04051
:10235000E1F700C00000712CF5CC81EF95E00E9400
:10236000BE0C8DE00E94B20C81E296E00E94BE0C91
:102370008DE00E94B20C8DE00E94B20CFFEF29E6C6
:1023800088E1F15020408040E1F700C00000DACC45
:10239000AE01455E5F4F63E08EEA0E948004EFE38A
:1023A000FCE93197F1F700C000008B8D803408F014
:1023B00090C08DE00E94B20C8DE00E94B20C87EAC2
:1023C00090E00E94BE0CF3E0F71590F00E94B60C6E
:1023D000182F80ED810F8A30C8F7812F0E94B20C30
:1023E000F601E70DF11D1083739424E07212EECF15
:1023F0008DE00E94B20C89EB90E00E94BE0C7E0141
:1024000085E0E80EF11C0E94B60C182F80ED810FBC
:102410008A30C8F7812F0E94B20CF70111937F0117
:10242000AE16BF0681F78DE00E94B20CAE01465E8B
:102430005F4F63E08EEA0E9480048FE39CE901977E
:10244000F1F700C000006A8D660F660F24E0462D8C
:10245000552D8AEA0E94A1049FEFE3ECF9E0915028
:10246000E040F040E1F700C000006A8D660F660FA3
:1024700024E04E8D5F8D8CEA0E94A1042FEF83EC47
:1024800099E0215080409040E1F700C000004A8D63
:102490004F5F4A8F63E08EEA0E946304EFE3FCE93A
:1024A0003197F1F700C0000087E696E00E94BE0C6D
:1024B0008DE00E94B20C8DE00E94B20CFFEF29E685
:1024C00088E1F15020408040E1F700C00000712C0D
:1024D00039CC81EF95E00E94BE0C8DE00E94B20CD9
:1024E00081E296E00E94BE0C8DE00E94B20C8DE06D
:1024F0000E94B20C9FEFE9E6F8E19150E040F04015
:10250000E1F700C000001ECC173309F0B9C28DE01E
:102510000E94B20C84E996E00E94BE0C8DE00E94FD
:10252000B20C85EB96E00E94BE0C8DE00E94B20CCE
:102530008DE00E94B20C8DE393E00E94BE0C0E94DD
:10254000B60C182F80ED810F8A30C8F7812F0E94BA
:10255000B20C8FEC810F8230E0F083E293E00E94B6
:10256000BE0C8DE00E94B20C8DE00E94B20C8DE397
:1025700093E00E94BE0C0E94B60C182F80ED810FD4
:102580008A30C8F7812F0E94B20C8FEC810F823005
:1025900020F78DE00E94B20C8DE00E94B20C86ED17
:1025A00096E00E94BE0CCE0101967C010E94B60C02
:1025B000082F80ED800F8A30C8F7802F0E94B20C60
:1025C000F70101937F01E815F90581F78DE00E947D
:1025D000B20C8DEF96E00E94BE0C7E01F5E0EF0E8E
:1025E000F11C0E94B60C082F80ED800F8A30C8F7CE
:1025F000802F0E94B20CF70101937F01AE16BF0637
:1026000081F78DE00E94B20C113309F01BC1AE01BD
:10261000465E5F4F62E08EEA0E9480048FE39CE991
:102620000197F1F700C000008A8D8111E8C0712C7C
:10263000F4C0A701632D86EA0E948004EFE3FCE961
:102640003197F1F700C00000A801632D88EA0E94CD
:1026500080048FE39CE90197F1F700C000003394F8
:102660009FEFE91AF90A0F5F1F4F3210E2CF44E0E3
:10267000642D7D8D862D952D0E940505813309F0F1
:10268000B8C044E0BE01635F7F4F8E8D9F8D0E9476
:102690000505813309F0ADC0872D90E02A8D30E02B
:1026A00021503109821793070CF063C0E72DEE0F1C
:1026B000EE0FEC8F272C4EC0A701632D86EA0E94F7
:1026C00080048FE39CE90197F1F700C00000A801A6
:1026D000632D88EA0E948004EFE3FCE93197F1F76B
:1026E00000C000003394FFEFEF1AFF0A0F5F1F4F87
:1026F00028A12311E1CF24E0AE014F5E5F4F6C8D26
:1027000086EA0E94A1048FEF93ECE9E081509040AB
:10271000E040E1F700C0000024E0AE014B5E5F4FF7
:102720006C8D88EA0E94A104FFEF23EC89E0F15050
:1027300020408040E1F700C000002394822D90E00B
:10274000EC8DEC5FEC8F2A8D30E02150310982173F
:1027500093077CF40196382E330C330C7E01F1E1A3
:10276000EF0EF11C8E010B5E1F4F24E0230D28A3FA
:10277000A3CF84E297E00E94BE0C8DE00E94B20CD1
:1027800010E06A8D660F660F6450610F4FEF86EAA6
:102790000E9463048FEF93ECE9E081509040E040A9
:1027A000E1F700C000006A8D660F660F6450610F8C
:1027B0004FEF88EA0E946304FFEF23EC89E0F150B9
:1027C00020408040E1F700C000001F5F1430C9F6D0
:1027D0004A8D41504A8F62E08EEA0E9463049FEF67
:1027E000E3ECF9E09150E040F040E1F700C0000078
:1027F00054C17394322C8A8D781618F00EC0312C87
:10280000712C7E0129E0E20EF11C8E01035F1F4F47
:102810006894222422F8230C0CCF8C8D811192CA4B
:1028200085E497E00E94BE0C8DE00E94B20C83E725
:1028300097E00E94BE0C8DE00E94B20C8DE00E94D9
:10284000B20C80CAAE01465E5F4F63E08EEA0E9422
:102850008004EFE3FCE93197F1F700C000008A8DB6
:102860008111E8C0712CF4C0A701632D8AEA0E948F
:1028700080048FE39CE90197F1F700C00000A801F4
:10288000632D8CEA0E948004EFE3FCE93197F1F7B5
:1028900000C000003394FFEFEF1AFF0A0F5F1F4FD5
:1028A0003210E2CF44E0642D7D8D862D952D0E945F
:1028B0000505813309F0B8C044E0BE01635F7F4F76
:1028C0008E8D9F8D0E940505813309F0ADC0872D47
:1028D00090E02A8D30E021503109821793070CF0E7
:1028E00063C0272D220F220F2C8F272C4EC0A7014B
:1028F000632D8AEA0E9480048FE39CE90197F1F737
:1029000000C00000A801632D8CEA0E948004EFE360
:10291000FCE93197F1F700C000003394FFEFEF1AA4
:10292000FF0A0F5F1F4F28A12311E1CF24E0AE0162
:102930004F5E5F4F6C8D8AEA0E94A1048FEF93EC8B
:10294000E9E081509040E040E1F700C0000024E061
:10295000AE014B5E5F4F6C8D8CEA0E94A104FFEFCD
:1029600023EC89E0F15020408040E1F700C00000F6
:102970002394822D90E0EC8DEC5FEC8F2A8D30E07B
:1029800021503109821793077CF40196382E330CBD
:10299000330C7E01F1E1EF0EF11C8E010B5E1F4F37
:1029A00024E0230D28A3A3CF84E297E00E94BE0C6D
:1029B0008DE00E94B20C10E06A8D660F660F6450C5
:1029C000610F4FEF8AEA0E9463048FEF93ECE9E016
:1029D00081509040E040E1F700C000006A8D660F32
:1029E000660F6450610F4FEF8CEA0E946304FFEFA3
:1029F00023EC89E0F15020408040E1F700C0000066
:102A00001F5F1430C9F64A8D41504A8F63E08EEA49
:102A10000E9463049FEFE3ECF9E09150E040F04046
:102A2000E1F700C0000039C07394322C8A8D78160B
:102A300018F00EC0312C712C7E0129E0E20EF11C41
:102A40008E01035F1F4F6894222422F8230C0CCFC1
:102A50008C8D811177C98DE00E94B20C85E497E0DE
:102A60000E94BE0C8DE00E94B20C83E797E00E94AA
:102A7000BE0C8DE00E94B20C8DE00E94B20C62C9C7
:102A8000183309F05FC98DE00E94B20C8DE00E94FE
:102A9000B20C8DE00E94B20C03C091E09C8F52C931
:102AA000A0960FB6F894DEBF0FBECDBFDF91CF91D9
:102AB0001F910F91FF90EF90DF90CF90BF90AF905C
:102AC0009F908F907F906F905F904F903F902F904E
:102AD0000895CF938DE094E00E94BE0C8DE00E949B
:102AE000B20C88E394E00E94BE0C8DE00E94B20C10
:102AF00084E897E00E94BE0C8DE00E94B20C86E94B
:102B000097E00E94BE0C8DE00E94B20C8DE00E9406
:102B1000B20C82ED91E00E94BE0C0E94B60CC82F50
:102B20000E94B20C8DE00E94B20C8DE00E94B20CAB
:102B300080ED8C0F8A3088F71DC081EA97E00E94F3
:102B4000BE0C8DE00E94B20C8DE00E94B20C8DE3B1
:102B500093E00E94BE0C0E94B60CC82F0E94B20CDB
:102B60008DE00E94B20C8DE00E94B20C80ED8C0FC3
:102B70008A3088F78FEC8C0F8430F8F6C13319F463
:102B80000E94450DA7CFC23309F066C08BEE94E0DA
:102B90000E94BE0C8DE00E94B20C8DE00E94B20C2F
:102BA00089E295E00E94BE0C8DE00E94B20C8EE39B
:102BB00095E00E94BE0C8DE00E94B20C86E495E088
:102BC0000E94BE0C8DE00E94B20C8EE495E00E9443
:102BD000BE0C8DE00E94B20C86E595E00E94BE0C12
:102BE0008DE00E94B20C8DE393E00E94BE0C0E9427
:102BF000B60CC82F0E94B20C8DE00E94B20C8DE082
:102C00000E94B20C80ED8C0F8A3088F71DC08FE6D1
:102C100095E00E94BE0C8DE00E94B20C8DE00E94F7
:102C2000B20C8DE393E00E94BE0C0E94B60CC82F3C
:102C30000E94B20C8DE00E94B20C8DE00E94B20C9A
:102C400080ED8C0F8A3088F780ED8C0F8530F8F698
:102C50008C2F0E94370B3ECFC33309F50E94730BB4
:102C60008FEA95E00E94BE0C8EE895E00E94BE0CB3
:102C70008AEA92E00E94110780EC0E94830688EBAA
:102C800092E00E9411072FEF83ED90E321508040E6
:102C90009040E1F700C000000E943D071BCFC43305
:0C2CA00009F018CFCF910895F894FFCFF1
:102CAC003738392F3435362A3132332D43303D2BDA
:102CBC0050617373776F72643A200041636365737C
:102CCC0073204772616E746564004163636573734E
:102CDC002044656E69656400547269616C73204CA4
:102CEC00656674203A2000456E74657220557365D4
:102CFC00726E616D65203A2000456E7465722050CD
:102D0C00617373776F7264203A200057454C434FC0
:102D1C004D4520424F53530057454C434F4D452092
:102D2C0041646D696E00547269616C73204C656608
:102D3C0074206265666F726520696E697469616C76
:102D4C00697A696E6720416C61726D203A20005778
:102D5C00656C636F6D65205573657200313131316F
:102D6C0000526F6F6D2031204C65640069732054E4
:102D7C0075726E6564206F6E006973205475726E87
:102D8C006564204F666600526F6F6D2032204C6573
:102D9C006400526F6F6D2033204C656400526F6F6E
:102DAC006D2034204C656400526F6F6D2035204CC3
:102DBC0065640057656C636F6D6520746F20536D8F
:102DCC006172740043686F6F7365206120726F6F5E
:102DDC006D2000312E20526F6F6D203100322E206D
:102DEC00526F6F6D203200332E20526F6F6D203377
:102DFC0000342E20526F6F6D203400352E20526F10
:102E0C006F6D203500362E20416C6C20526F6F6D2B
:102E1C007300596F75722043686F696365203A209F
:102E2C0000506C656173652043686F6F736500417A
:102E3C006C6C204C65647320617265200054757253
:102E4C006E6564204F4646005475726E204F4E20BE
:102E5C003A2031005475726E204F4646203A20308D
:102E6C0000312E436F6E74726F6C204C656473006E
:102E7C00322E44696D6D696E67204C616D70003344
:102E8C002E436C6F73652074686520446F6F7200FD
:102E9C00342E4C6F676F75740054686520427269EC
:102EAC006768746E6573730070657263656E7461C8
:102EBC006765732061726500302E20302025202834
:102ECC004F46462900312E20323520252000322E47
:102EDC0020353020252000332E20373520252000AA
:102EEC00342E2031303020252000202054686520DD
:102EFC00646F6F722069730020202020436C6F7305
:102F0C0065640057656C636F6D6520746F20536D3D
:102F1C0061727420486F6D652053797374656D0010
:102F2C00506C656173652063686F6F736520796F92
:102F3C007572204D6F6465202841646D696E2F5544
:102F4C00736572292000312E2041646D696E204D0D
:102F5C006F64652000322E2055736572204D6F64AE
:102F6C00652000506C656173652043686F6F7365F5
:102F7C00206F6E6C792031206F72203200596F7582
:102F8C00722063686F696365203A2000312E2052ED
:102F9C006F6F6D20312000322E20526F6F6D2032FA
:102FAC002000332E20526F6F6D20332000342E20E2
:102FBC00526F6F6D20342000352E20526F6F6D20B4
:102FCC00352000362E20416C6C20726F6F6D732093
:102FDC0000506C656173652043686F6F7365206F7B
:102FEC006E6C792066726F6D203120746F20360004
:102FFC005475726E204F6E203A2031005475726EEB
:10300C00204F6666203A203000506C656173652055
:10301C0043686F6F73652031206F72203000416CF4
:10302C006C204C65647320617265205475726E65FA
:10303C0064204F6E00416C6C204C6564732061728F
:10304C0065205475726E6564204F666600312E20C3
:10305C00436F6E74726F6C6C696E67204C69676835
:10306C0074696E672028526F6F6D203120746F2049
:10307C00526F6F6D20352900322E2044696D6D69B9
:10308C006E67206C616D7000332E204F70656E2062
:10309C0074686520446F6F7200342E20436C6F731C
:1030AC00652074686520446F6F7200352E20416472
:1030BC00642061646D696E20746F20746865207380
:1030CC00797374656D00362E2041646420757365C8
:1030DC007220746F207468652073797374656D0049
:1030EC00372E2052656D6F76652061207573657281
:1030FC002066726F6D207468652073797374656DCA
:10310C0000382E204C6F67206F757400506C656111
:10311C0073652043686F6F7365206F6E6C792066E2
:10312C00726F6D203120746F203800506C656173A4
:10313C00652043686F6F7365206F6E65206F662026
:10314C0074686520666F6C6C6F77696E672062724D
:10315C00696768746E6573732070657263656E74ED
:10316C0061676573203A202000302E2030252028FE
:10317C005475726E204F6666204C65642900312EA2
:10318C00203235252000322E203530252000332EDC
:10319C00203735252000342E2031303025202028B2
:1031AC004D6178696D756D20506F7765722900508F
:1031BC006C656173652043686F6F7365206F6E6C0F
:1031CC00792066726F6D203020746F2034000D00F2
:1031DC0054686520646F6F72206973206F70656E20
:1031EC0065640020202020204F70656E65640054BB
:1031FC00686520646F6F7220697320636C6F7365F0
:10320C0064005468652061646D696E206973206187
:10321C0064646564207375636365737366756C6C45
:10322C00790041646D696E20697320616464656422
:10323C0000536F7272792C20746865206D61786907
:10324C006D756D206E756D62657220666F7220757E
:10325C0073657273206973203634207573657273CD
:10326C00005468652073797374656D2063616E27F3
:10327C007420616464206D6F726500312E2052657C
:10328C006D6F746520557365722028554152542911
:10329C0000322E204C43442026204B65797061640B
:1032AC002055736572200054686520757365722013
:1032BC0069732061646465642073756363657373FB
:1032CC0066756C6C79005573657220697320616446
:1032DC0064656400312E2044656C65746520612042
:1032EC0072656D6F746520285541525429205573B1
:1032FC006572202000322E2044656C657465206157
:10330C006E204C43442026204B6579706164205517
:10331C00736572202000456E74657220557365725A
:10332C00277320557365726E616D6520746F206212
:10333C00652064656C65746564203A2000456E7484
:10334C006572205573657227732050617373776FA4
:10335C00726420746F2062652064656C65746564AA
:10336C00203A2000546865207573657220697320BB
:10337C0064656C65746564207375636365737366EB
:10338C00756C6C790054686520656E746572656443
:10339C0020557365726E616D6520262050617373C4
:1033AC00776F726420617265206E6F7420666F7522
:1033BC006E6400506C65617365205472792061678E
:1033CC0061696E00332E20436C6F736520746865E1
:1033DC0020446F6F7200342E204C6F67206F757411
:1033EC0000506C656173652043686F6F7365206F67
:1033FC006E6C792066726F6D203120746F203400F2
:00000001FF
